:020000040000fa
:080000000002040000000000f2
:020000040000fa
:040008005c03000095
:020000040000fa
:04000c006e0300007f
:020000040000fa
:040010007e0300006b
:020000040000fa
:040014006403000081
:020000040000fa
:04001800760300006b
:020000040000fa
:04001c008e0300004f
:020000040000fa
:040020008603000053
:020000040000fa
:040024008e03000047
:020000040000fa
:040028008e03000043
:020000040000fa
:04002c008e0300003f
:020000040000fa
:040030008e0300003b
:020000040000fa
:040034008e03000037
:020000040000fa
:040038008e03000033
:020000040000fa
:04003c008e0300002f
:020000040000fa
:040040008e0300002b
:020000040000fa
:040044008e03000027
:020000040000fa
:040048008e03000023
:020000040000fa
:04004c008e0300001f
:020000040000fa
:040050008e0300001b
:020000040000fa
:040054008e03000017
:020000040000fa
:040058008e03000013
:020000040000fa
:04005c008e0300000f
:020000040000fa
:040060008e0300000b
:020000040000fa
:040064008e03000007
:020000040000fa
:040068008e03000003
:020000040000fa
:04006c008e030000ff
:020000040000fa
:040070008e030000fb
:020000040000fa
:040074008e030000f7
:020000040000fa
:040078008e030000f3
:020000040000fa
:04007c008e030000ef
:020000040000fa
:040080008e030000eb
:020000040000fa
:040084008e030000e7
:020000040000fa
:040088008e030000e3
:020000040000fa
:04008c008e030000df
:020000040000fa
:040090008e030000db
:020000040000fa
:040094008e030000d7
:020000040000fa
:040098008e030000d3
:020000040000fa
:04009c008e030000cf
:020000040000fa
:0400a0008e030000cb
:020000040000fa
:0400a4008e030000c7
:020000040000fa
:0400a8008e030000c3
:020000040000fa
:0400ac008e030000bf
:020000040000fa
:0400b0008e030000bb
:020000040000fa
:0400b4008e030000b7
:020000040000fa
:0400b8008e030000b3
:020000040000fa
:0400bc008e030000af
:020000040000fa
:0400c0008e030000ab
:020000040000fa
:0400c4008e030000a7
:020000040000fa
:0400c8008e030000a3
:020000040000fa
:0400cc008e0300009f
:020000040000fa
:0400d0008e0300009b
:020000040000fa
:0400d4008e03000097
:020000040000fa
:0400d8008e03000093
:020000040000fa
:0400dc008e0300008f
:020000040000fa
:0400e0008e0300008b
:020000040000fa
:0400e4008e03000087
:020000040000fa
:0400e8008e03000083
:020000040000fa
:0400ec008e0300007f
:020000040000fa
:0400f0008e0300007b
:020000040000fa
:0400f4008e03000077
:020000040000fa
:0400f8008e03000073
:020000040000fa
:0400fc008e0300006f
:020000040000fa
:040100008e0300006a
:020000040000fa
:040104008e03000066
:020000040000fa
:040108008e03000062
:020000040000fa
:04010c008e0300005e
:020000040000fa
:040110008e0300005a
:020000040000fa
:040114008e03000056
:020000040000fa
:040118008e03000052
:020000040000fa
:04011c008e0300004e
:020000040000fa
:040120008e0300004a
:020000040000fa
:040124008e03000046
:020000040000fa
:040128008e03000042
:020000040000fa
:04012c008e0300003e
:020000040000fa
:040130008e0300003a
:020000040000fa
:040134008e03000036
:020000040000fa
:040138008e03000032
:020000040000fa
:04013c008e0300002e
:020000040000fa
:040140008e0300002a
:020000040000fa
:040144008e03000026
:020000040000fa
:040148008e03000022
:020000040000fa
:04014c008e0300001e
:020000040000fa
:040150008e0300001a
:020000040000fa
:040154008e03000016
:020000040000fa
:040158008e03000012
:020000040000fa
:04015c008e0300000e
:020000040000fa
:040160008e0300000a
:020000040000fa
:040164008e03000006
:020000040000fa
:040168008e03000002
:020000040000fa
:04016c008e030000fe
:020000040000fa
:040170008e030000fa
:020000040000fa
:040174008e030000f6
:020000040000fa
:040178008e030000f2
:020000040000fa
:04017c008e030000ee
:020000040000fa
:040180008e030000ea
:020000040000fa
:040184008e030000e6
:020000040000fa
:040188008e030000e2
:020000040000fa
:04018c008e030000de
:020000040000fa
:040190008e030000da
:020000040000fa
:040194008e030000d6
:020000040000fa
:040198008e030000d2
:020000040000fa
:04019c008e030000ce
:020000040000fa
:0401a0008e030000ca
:020000040000fa
:0401a4008e030000c6
:020000040000fa
:0401a8008e030000c2
:020000040000fa
:0401ac008e030000be
:020000040000fa
:0401b0008e030000ba
:020000040000fa
:0401b4008e030000b6
:020000040000fa
:0401b8008e030000b2
:020000040000fa
:0401bc008e030000ae
:020000040000fa
:0401c0008e030000aa
:020000040000fa
:0401c4008e030000a6
:020000040000fa
:0401c8008e030000a2
:020000040000fa
:0401cc008e0300009e
:020000040000fa
:0401d0008e0300009a
:020000040000fa
:0401d4008e03000096
:020000040000fa
:0401d8008e03000092
:020000040000fa
:0401dc008e0300008e
:020000040000fa
:0401e0008e0300008a
:020000040000fa
:0401e4008e03000086
:020000040000fa
:0401e8008e03000082
:020000040000fa
:0401ec008e0300007e
:020000040000fa
:0401f0008e0300007a
:020000040000fa
:0401f4008e03000076
:020000040000fa
:0401f8008e03000072
:020000040000fa
:0401fc008e0300006e
:020000040000fa
:040200008e03000069
:020000040000fa
:040204008e03000065
:020000040000fa
:040208008e03000061
:020000040000fa
:04020c008e0300005d
:020000040000fa
:040210008e03000059
:020000040000fa
:040214008e03000055
:020000040000fa
:040218008e03000051
:020000040000fa
:04021c008e0300004d
:020000040000fa
:040220008e03000049
:020000040000fa
:040224008e03000045
:020000040000fa
:040228008e03000041
:020000040000fa
:04022c008e0300003d
:020000040000fa
:040230008e03000039
:020000040000fa
:040234008e03000035
:020000040000fa
:040238008e03000031
:020000040000fa
:04023c008e0300002d
:020000040000fa
:040240008e03000029
:020000040000fa
:040244008e03000025
:020000040000fa
:040248008e03000021
:020000040000fa
:04024c008e0300001d
:020000040000fa
:040250008e03000019
:020000040000fa
:040254008e03000015
:020000040000fa
:040258008e03000011
:020000040000fa
:04025c008e0300000d
:020000040000fa
:040260008e03000009
:020000040000fa
:040264008e03000005
:020000040000fa
:040268008e03000001
:020000040000fa
:04026c008e030000fd
:020000040000fa
:040270008e030000f9
:020000040000fa
:040274008e030000f5
:020000040000fa
:040278008e030000f1
:020000040000fa
:04027c008e030000ed
:020000040000fa
:040280008e030000e9
:020000040000fa
:040284008e030000e5
:020000040000fa
:040288008e030000e1
:020000040000fa
:04028c008e030000dd
:020000040000fa
:040290008e030000d9
:020000040000fa
:040294008e030000d5
:020000040000fa
:040298008e030000d1
:020000040000fa
:04029c008e030000cd
:020000040000fa
:0402a0008e030000c9
:020000040000fa
:0402a4008e030000c5
:020000040000fa
:0402a8008e030000c1
:020000040000fa
:0402ac008e030000bd
:020000040000fa
:0402b0008e030000b9
:020000040000fa
:0402b4008e030000b5
:020000040000fa
:0402b8008e030000b1
:020000040000fa
:0402bc008e030000ad
:020000040000fa
:0402c0008e030000a9
:020000040000fa
:0402c4008e030000a5
:020000040000fa
:0402c8008e030000a1
:020000040000fa
:0402cc008e0300009d
:020000040000fa
:0402d0008e03000099
:020000040000fa
:0402d4008e03000095
:020000040000fa
:0402d8008e03000091
:020000040000fa
:0402dc008e0300008d
:020000040000fa
:0402e0008e03000089
:020000040000fa
:0402e4008e03000085
:020000040000fa
:0402e8008e03000081
:020000040000fa
:0402ec008e0300007d
:020000040000fa
:0402f0008e03000079
:020000040000fa
:0402f4008e03000075
:020000040000fa
:0402f8008e03000071
:020000040000fa
:0402fc008e0300006d
:020000040000fa
:040300008e03000068
:020000040000fa
:040304008e03000064
:020000040000fa
:040308008e03000060
:020000040000fa
:04030c008e0300005c
:020000040000fa
:040310008e03000058
:020000040000fa
:040314008e03000054
:020000040000fa
:040318008e03000050
:020000040000fa
:04031c008e0300004c
:020000040000fa
:040320008e03000048
:020000040000fa
:100400000f0f21000eff24000e01880000002000c5
:100410000000e000020032000001200020028800fd
:1004200014000700060107000000e00003003a0086
:1004300080e12100010020000200370000002000c0
:1004400001002000810f70004220ae000f00070065
:10045000000020000000e0004220ae00000002008a
:1004600000000000da1e0200000000000040da0078
:100470000000fe00a00020000000e00002003200aa
:10048000002020009001880000000600a1028800e2
:10049000800478000000eb001f003700e284440075
:1004a00054a0b4009905ba00e284440054a0b400fa
:1004b0009906ba00e284440054a0b4000006eb00a0
:1004c000476fde00fd07b200ae018800636ce100fb
:1004d00003003a000ad801000000eb000e003700cc
:1004e000606ce10008003a00004deb000a05e800ee
:1004f000020039003420ec000af0a0008b05e9006e
:10050000f9ff3e00040037006168e100010032009d
:100510000086eb000b00070019c7ba001905ba00e6
:100520000e04e00003003a000a00e000dbff3a009e
:1005300000000600fe07b200ae0288008a047800c0
:10054000f5ff37000cd0a300e20f4d001c0039006e
:1005500089027800354dba000a05e800020039002a
:100560003420ec000af0a0008b05e9000f003200f7
:10057000254dba000a05e800020039003420ec00dd
:100580000af0a0008b05e900080032000c00e00032
:100590000600320015cdba000a05e8000200390055
:1005a0003420ec000af0a0008b05e9008984e80003
:1005b00054a0b4000b00e000e2ff3a000000060087
:1005c0009902ba00055d78008b05e900f7ff32005b
:1005d000c82ade00055d78008b05e900f3ff3200d4
:1005e0000c00e000f1ff320019ddba00eeff370029
:1005f0006100e10001003200100005003200f80047
:100600003400f8000002be00930188003200be00f2
:100610000100e0000700320032037800c733de003b
:10062000a7018800f607b2007f30e1000400320025
:10063000200020003400f9003200f900000006001c
:100640008100e9000500e00003003a000180090094
:1006500032100300edff37000180090032900300e3
:10066000d561ae00e9ff370030002000f1ff370010
:1006700050052000b00e8800a00a2000b00e8800af
:10068000d3e1a8000000060050052000b00e88004d
:10069000a00a2000b00e8800d3e1a90000000600e7
:1006a00042040400000000006e0604000000000088
:1006b00000000400000000003600f800c028a90077
:1006c0000000eb00810e07003600f800830e0700e3
:1006d000c048a900100020007c0e07003600f8007a
:1006e000c068a90020002000780e07003600f8003e
:1006f000c088a90030002000740e07003600f80002
:10070000c608a90070002000700e07003600f8002f
:10071000c408a900b00020006c0e07000040da00f9
:100720000000fe000a00fa0011002000b1bf9f0087
:10073000c0bf9f006a805700140607004fb897009b
:100740000080fa00000006000a00fa0051002000b4
:10075000b1bf9f00c0bf9f006a8057000d06070011
:100760005fb897000080fa0000000600889fbe0076
:1007700080047800708780000000e00004003a00e8
:100780000e0007000084eb000000e00008003500c8
:10079000788780000900e00005003200090044006d
:1007a000060007000000e00001003d000084eb00af
:1007b000080078004f04be000000060080007800aa
:1007c0000100e00003003a0000002000708788006c
:1007d000000005000080eb0002002000828f500026
:1007e00002003e00718788000000eb000000060058
:1007f0000800fa00100798002107980032079800b7
:10080000be009000010f7800070037002e00900016
:1008100010407800ae0090008100e80021079800a9
:10082000b80c07001e0fe9001e0078000000e00071
:10083000f6ff3a003e0090000080fa00000006003b
:10084000000005006022b800060220000000d00071
:100850008180d2000482d2008582d2000000a000f4
:100860000202520083825a00030031000202420059
:1008700083824a000000a1000603e900f3ff3a006a
:1008800000000600889fbe00000478000100780088
:1008900082047800880178000901780011002000a6
:1008a0000e000700890f5000010032000004eb0029
:1008b000080078004f04be00000006000000fa00a7
:1008c000e88157004fb99700a10221002044200081
:1008d000580107000080fa0000000600889fbe0053
:1008e0008a9fbe008c9fbe008e1f78000006780095
:1008f0000104780002007800830478000881b900c0
:10090000020778000200e000420032000800e00028
:100910004100320082057800c90090006900900013
:10092000808f500004003900090078005000070053
:100930000000e000290035000040200019006000a0
:100940000a0032000b017800a10020000c007800a2
:1009500036000700800678000d00e0000600320037
:10096000610516000a854600040037000b05780073
:100970008006eb00010037000b057800490090006d
:10098000e9009000808050008a8f50000200310002
:10099000010578008006eb000a0178008c007800e1
:1009a0002c0007008a855500490090000a0040008d
:1009b000c00498000d00e000040032000900780037
:1009c000d60007000000e00004003a000b00e00041
:1009d000020032000a064600cfff370000802000e8
:1009e000190060000200320009007800cb00070007
:1009f00000c0200019006000020032004900900091
:100a0000e00498008b055700050009008885d80090
:100a1000010037000000eb004f0778004f06be00d2
:100a20004f05be004f04be00000006000300370063
:100a3000b0cf1000050032000201e900800178000b
:100a40000200e000faff3a00000005000300780011
:100a5000000006008001780002003700b1597800dc
:100a60000201e9000200e000fcff3a00000006007d
:100a7000889fbe008a1f780000047800c80090009c
:100a8000680190000000eb00828f50003c003900ac
:100a9000180078002200290002016000e20f5100d6
:100aa00007003200012024000000e00001003d00aa
:100ab00001202000008c70000080eb003000370027
:100ac0000200260002006000820f500009003a0078
:100ad00038009000808f5000060039000800780030
:100ae0008e000700800078000080eb000100e0002d
:100af00023003a001805780000c0200000006500bf
:100b000018003a00a804900060022000080040008d
:100b1000808f540013003a0000202000ee020700ee
:100b2000200498000000e00005003a002904980025
:100b3000490498008904e800390498000800370047
:100b40000a60a0000a0c78004004980001202000f0
:100b50008080400031049800400c9800500c9800b0
:100b60000c00070028009000500498003800900006
:100b70006004980000002600180c70000000eb00d4
:100b80004f0578004f04be0000000600e06620001c
:100b90009c003700881f7800a80e21001804e00090
:100ba00003003a00f9ff070020c0b300004c7800b2
:100bb0004f04780000000600889fbe000004780003
:100bc00008007800550007008004780066800a005d
:100bd000180000000000e000020032002800900031
:100be000580207000000eb002004980038409000f5
:100bf0000004e000050035000000fb00c9fe07000e
:100c00000000e000010032008084eb00181090002a
:100c10000000e00008003200cbfe07000000e0000a
:100c2000010032008084eb0018109000450207009c
:100c30000000eb001014980000082000180060006d
:100c4000150032000001eb006000b800a30721008e
:100c50000202d00063027a00880f520005003a00b9
:100c60000000400081804800008041000008eb0047
:100c70000600370061004000e08048000201e80003
:100c8000e80f5000e08f5800f0ff3a0008007800ad
:100c90002c0207000e003700000c780000c0eb00ab
:100ca00030449800600220000800400020049800b2
:100cb0004004980050049800400c9800600498008c
:100cc000500c98007004980076004400000c9800c6
:100cd000090078004f04be0000000600881f78005d
:100ce0000004eb006140b800e2ff2f00f3ff2f008b
:100cf000bc04070082082100620078000000e000c8
:100d000001003200acff07000804e800e80f5400bf
:100d1000f4ff3a004f04780000000600889fbe00f0
:100d2000000478000800e0000e003a008004eb00a8
:100d30008800d000a0072100610078000000e000da
:100d400004003200f5ff07000000e00001003d0054
:100d50008084eb000804e800e80f5400f4ff3a0038
:100d60002500370000002200180060008004eb001e
:100d700021003200a80490000f0037000901510043
:100d8000384090000000fb008900780098fe0700c2
:100d90000000e00007003c0028009000400498009c
:100da00060049800500c98001890a0008084eb001c
:100db000110037008084440048019000828f540065
:100dc000eeff390028009000400498009800780059
:100dd00002c020000281600001003a00380090004b
:100de00001e8a3000200320060049800010037000f
:100df000500c98008004eb00090078004f04be00fe
:100e000000000600010020000100e00008003200a0
:100e1000010080000100e000050032008100e900cf
:100e2000010088008100d0000200800000b178003d
:100e3000000006006200fa00889fbe008a1f78004a
:100e400000057800810478000204780083007800af
:100e500080f92f000f0040004a0407009a979f0076
:100e6000a9979f000000eb00b09f9f001885fb0032
:100e70008a04fb000a05ea004f55de0050022000fc
:100e8000808f54000d003200e10f55000b003a0036
:100e90000a017800880078002f9097009f919700b2
:100ea00003000100a0979f000000e0008e003200c8
:100eb0003f9897000000e800b09f9f000a0444009c
:100ec00050022000808f5400040032000900e0002e
:100ed000e6ff3a003f989700840037000000eb00df
:100ee000909f9f00809f9f00f0979f00e0979f003a
:100ef000d0979f00c0979f0007003700010e210088
:100f00000100500000004000410d21006100780008
:100f1000df98970001007000d09f9f008804780040
:100f200009047800384578008a00fb00000e210093
:100f3000130207000000e000f0ff3a00a1c2b30076
:100f4000814f55000e003a00cf8897000180e900dc
:100f5000c08f9f0010007800c09f9f000000e0003d
:100f600005003d000000ea00c09f9f005f989700c9
:100f70000020a000d09f9f000904e8000f00370068
:100f8000c09f9f000000eb0005003700f2ff270024
:100f9000820f5000020032006a01b9000280400056
:100fa0000904780088047800b900fb000103b1004f
:100fb000e98f5000f5ff3600c09f9f00e0c2b300ec
:100fc000984f1000020032000080eb00190037003b
:100fd000a0c2b300d84f100007003a00cf88970096
:100fe0000180e900c08f9f0010007800a09f9f0043
:100ff0000804e800100037000000eb00a09f9f00ed
:101000008800780005003700f3ff2700830f5000a9
:10101000020032006a02b9000400410001047800b5
:10102000880078003101fb000203b100e90f510094
:10103000f5ff3600a09f9f00984478008900fb00d0
:10104000c00c2100ce0107000000e00002003200c9
:101050000804e800010037008044eb00c97f9f00ce
:1010600080c6b30080cf540004003a0098cf14002b
:101070000a003a006640500006003700c0c6b300c0
:1010800080cf540005003a0098cf140003003a00c6
:1010900065404000c07f9f000804e8001801fb0085
:1010a000e3fb2f008f81410081f92f008f804000ea
:1010b000a0f92f000f004000100007000000e00022
:1010c00009003a00e1fb2f008f804000a0f92f00bb
:1010d0000f004000ef0207000000e00002003500b2
:1010e0000804e80061ff37000080eb004f0578003e
:1010f0004f04be000080fa0000000600889fbe007a
:101100008a9fbe00e4c6b300844f5100be00320087
:1011100010003c006b425200844f51001800320016
:1011200005003c0054c2b300844f5100f600320069
:1011300084c5b3000f00370044c6b300844f51008c
:101140001400320065424200844f5100f1003a0021
:101150001000370004c7b300844f5100dd00320097
:101160005600350065424200844f51005300320062
:1011700063424200844f5100e6003a004f003700be
:101180001181e90082087800f00090001241780097
:10119000de00370020629000c5c6b300854f5200c4
:1011a00007003a00910278006482520084087800b7
:1011b0001402be004fabde00860378001400370037
:1011c00015c7b300854f520003003a0011047800a0
:1011d0006802540005003700a5c6b300854f5200d1
:1011e00006003a0091047800688254008408780070
:1011f0005403be004402be00050037001182e9001e
:101200008408780014027800cfa2de00612bb900b8
:101210000498be000690be00a060900088c6b3008f
:1012200088cf50000d00320028c6b30088cf500090
:1012300004003a000402fb00cfa2de00612bb900db
:101240000800370048c7b30088cf500003003200c1
:101250006644440088cf500004003a00cfa2de006c
:10126000612bb9000498be000690be003002be009b
:101270002003be00f0009000e00f5200e08f5a0003
:10128000e00f5b00e08f5b0002003d00d4c2b300c2
:1012900008003700001290000418a300020032007a
:1012a000b4c2b300030037000408a30051003200a9
:1012b00004c2b30084f178004c0037002062900033
:1012c000c5c6b300854f520008003a0011057800ea
:1012d00064025500840878001404be006055b8000c
:1012e0000802be000a03be001400370015c7b30091
:1012f000854f520003003a00910478006882540040
:1013000005003700a5c6b300854f520006003a001d
:101310001105780068025500840878005403be0067
:101320004402be00050037001182e90084087800fd
:10133000140278008002eb006033b8000498be000d
:101340000690be00a060900088c6b30088cf500011
:101350000d00320028c6b30088cf500004003a00c8
:101360000482fb008002eb006033b8000800370005
:1013700048c7b30088cf50000300320066444400e1
:1013800088cf500004003a008002eb006033b800c0
:101390000498be000690be00801090000138a300a3
:1013a000140032003002be002003be00e00f5200e5
:1013b000e08f5a00e00f5b00e08f5b000d00320011
:1013c00081c7b300814f51000300320081c5b300d3
:1013d000814f510007003a00f000900004c3b300b1
:1013e00084f178008100e80082f178008100e80053
:1013f00071009800f0009000818141006300980026
:10140000824078003e003700a0619000c4c6b3005f
:101410001181e90084cf5100220032000a003c0013
:101420006442520084cf51002500320004c2e8001b
:1014300084cf5100130032006842520084cf510023
:101440001e003a000a00370044c7b30084cf5100a1
:101450001b0032006642420084cf51001800320067
:101460006942520084cf510014003a000500370051
:1014700082087800920078004058900080487800f8
:101480002c0037008208780092007800600a9000f3
:10149000cfa2de00612bb9008498be008690be000a
:1014a00024003700820878009200780060099000dc
:1014b000cf91de008288be001e0037001181e90056
:1014c0008208780092007800600890008008780018
:1014d000180037001181e9008208780012027800b4
:1014e000cfa2de00612bb9000498be000690be00ba
:1014f000f0009000818141006300980081c7b30033
:10150000b50007000b003700f000900082f1780072
:1015100006003700f0009000818141000204e000e5
:1015200001003a0052c2b300824978008100e8000d
:10153000710098000000eb004f05be004f04be0094
:10154000000006000000e0002f003200c00178001b
:10155000e38f51002c0036000308a3002a003a0054
:10156000418780000100e00002003200810f50003e
:1015700004003100110098004087880016003700f1
:1015800082007800110190000200e00002003200a9
:10159000800f5100faff3900110278008482400068
:1015a000850f500018003900808f520003003a0068
:1015b0008308420001007800070037000200e000c5
:1015c0000300320083014000830f51000e003900f8
:1015d0001200980090009800900090000100e00038
:1015e0000900320010014000828f500006003a00ce
:1015f000620e21000009eb00100178001108410083
:10160000910090001100980000000600889fbe0025
:1016100000047800318780000100e0000200320001
:10162000010078000d00370041878000800e210006
:1016300004003700910f5400250036000180e800b7
:10164000910090000100e000faff3a00100037001e
:10165000920f54001e0036000280e800100178004e
:101660000200e000faff3a00110178004187800093
:10167000800e210004003700910f54001400360042
:101680000180e80091009000828f5000faff3a003c
:1016900069878000888f5400010031008804780039
:1016a00009007800420007000000e00004003a0052
:1016b000888f5400050032008904d100f5ff3700ff
:1016c000091878009fff0700d2ff37000000eb00e9
:1016d0004f04be0000000600881f7800630440002d
:1016e0000800a1008000eb00800f540021003600ac
:1016f000e30f540001003e0048002000080078007d
:10170000c2ff07008000eb000000e000190032007b
:10171000900078009101780064815100880f510099
:101720000300310011019000020878000700370023
:101730000881400002087800910190001301980090
:101740001001780011091400880878001001780051
:101750000000eb000200e000040032009201900063
:101760000300e000010032000280e80030878800ba
:101770008180e800010078004f0478000000060036
:10178000020037000304e000060032000001780088
:1017900002007800b041780081cf5100f9ff3a0093
:1017a000010037000001eb00020078000000060095
:1017b000800078000000eb000100e000050034002c
:1017c00001007800e9fb0700e10f400001003a004a
:1017d0000000eb0000000600fc874700889fbe0069
:1017e0008a9fbe008c9fbe008e1f78000006780086
:1017f00080c5b30080cf50000a003200774040001f
:1018000080cf50000a0032006940400080cf500075
:101810000b003200b009210080bf9f00ae00200005
:101820000a003700a208210082bf9f00060037008f
:10183000b309210083bf9f008e0020000300370002
:10184000b409210084bf9f000e0120003c02be00ad
:101850002c03be000605be000404be0040c6b30053
:1018600080cf5000030032006540400080cf500020
:101870000b003a00e00f5200e08f5a00e00f5b00cf
:10188000e08f5b0006003d006000b8006011b8000a
:1018900004045000858458000605590087855900c6
:1018a000e80f57000400320040002000f00f5700fe
:1018b00038003a000100370030002000e00f5400eb
:1018c000e08f5c00e00f5d00e08f5d0004003a00f7
:1018d000dc0890008d0120000100e00006003200cd
:1018e0008e00e900888060008fba9700e5c078001c
:1018f000f1ef9f007d012000800078008100e90069
:10190000050033008b05d1000a85d3008984d300fc
:101910000884d300f9ff3700089ebe000a96be0077
:10192000120037008d06e9008e00e9008480600017
:101930000fb99700e2c1780082fd2f000f0141002e
:1019400003f17e00800078008100e900050033008b
:101950008783d1000683d3008582d3000482d3001d
:10196000f9ff3700049ebe000696be003c02be0092
:101970002c03be00e00f5200e08f5a00e00f5b0026
:10198000e08f5b008b0034000d00e000e5ff3c00c1
:10199000880037002c60900081c6b300814f500052
:1019a0000b00320006003c000004e000080032009a
:1019b000e6c05000814f50004e003a00040037004e
:1019c000c1c6b300814f50004a003a0021003700e1
:1019d0000800e00004003a005c0890008d0120003f
:1019e0000000e00006003200050009000e84d80067
:1019f0000fb99700e2c07800f1ef9f007d01200051
:101a0000050009000e84d8000a003700050009000f
:101a10000e04d8008d06e9000e81b90002045400be
:101a20008fb8970061417c0081fd2f008f804000be
:101a300082f07e00000478000800e000020032001e
:101a40000d00e000f1ff3c00cfc4de00614db900a5
:101a500025003700e00f5400e08f5c0004003a00de
:101a60005c0890008d0120000000e00007003200bb
:101a70006171b9000800be00570107008fb99700d7
:101a8000e3417800f3ef9f007d0120006171b90010
:101a90000800be006bfb07000b0037006171b90046
:101aa0000800be003d0107008d06e90000f1b90005
:101ab000020454000fba9700e4427c0084fd2f001a
:101ac0000f02420005f27e000004be00e00f50004d
:101ad000e08f5800020032000d00e000efff3c00f4
:101ae0004fcdde008a057800089ebe000a96be0033
:101af00030003700e00f5400e08f5c00e00f5d0025
:101b0000e08f5d0004003a005c0890008d01200029
:101b10000000e000090032006172b900612bb900d9
:101b20000800be000a01be00d40107000fba9700ea
:101b300064427800f4ef9f007d0120006172b900db
:101b4000612bb9000800be000a01be00c4010700f5
:101b50000d0037006172b900612bb9000800be00aa
:101b60000a01be00c90107008d06e90000f2b900b4
:101b7000040454008fba970065427c0085fd2f0055
:101b80008f82420084f27e00009ebe000296be005c
:101b90003c04be002c05be00e00f5400e08f5c004a
:101ba000e00f5d00e08f5d00020034000d00e000fa
:101bb000e8ff3c00e80f570010003a000c109000be
:101bc0000038a3000d003200f78f560006003e00db
:101bd00085fd2f008f824200e5c07e0000c3b30068
:101be00080cf5000050032008d06e90002c3b3002b
:101bf00081fd2f008f80400082f07e0078811600ea
:101c0000120e98006c00900083fd2f008f81410020
:101c10008d8041008ffb07001c089000dc089000bd
:101c2000810f500006003d0000805000000e98001b
:101c30000c1090000040a100001698000f00370023
:101c40000100e0000d003d008c109000f480600069
:101c5000f08f500009003a007c099000fc009000d1
:101c6000810051000c0990008280500000805000db
:101c70004240a90001003400000e98004f07780090
:101c80004f06be004f05be004f04be00cf01b1009d
:101c9000000006000400fa00889fbe008a9fbe0074
:101ca0008c1f78000004780001067800f80d900081
:101cb00078009000808555000808900080855500c8
:101cc00018089000808555002808900080855500f0
:101cd00038089000808555004808900080855500a0
:101ce0000002220090bf9f0000032300a0bf9f00be
:101cf000081090000028a30015003a000b00e00037
:101d0000130034000b0578008a047800e20f5500b8
:101d10000100360029002000c80190000901780068
:101d2000ee80570058009000030001005004980016
:101d30000000e0008c0032006808900009004000bc
:101d4000600c9800090555004240a900eeff3c00d8
:101d5000780190000200e0000c003400c8019000ff
:101d60008c00780058009000030001005004980097
:101d70008080eb000000e0007c003200e80890006a
:101d80007800900000804000600c9800880c900063
:101d90000900e0001100340009057800e28f5400ca
:101da000010036002a002000c80190000a017800d6
:101db000ec80570058009000030001005004980088
:101dc0000000e00068003200680890000a0040004f
:101dd000600c98008a845400edff370018099000c9
:101de0000200e0000c003400c8019000e800900000
:101df0005800900003000100500498008080eb0020
:101e00000000e00059003200e80890001808900037
:101e100000804000600c9800a80c90000900e000d1
:101e20001100340009057800e28f540001003600eb
:101e30002a002000c80190000a017800ec805700b9
:101e40005800900003000100500498000000e000da
:101e500045003200680890000a004000600c9800bd
:101e60008a845400edff3700380990000200e0003a
:101e70000e003400e80090001808900080804000b8
:101e8000c801900058009000030001005004980021
:101e90008080eb000000e00034003200e808900091
:101ea0003808900000804000600c9800c80c90003a
:101eb0000900e0001100340009057800e28f5400a9
:101ec000010036002a002000c80190000a017800b5
:101ed000ec80570058009000030001005004980067
:101ee0000000e00020003200680890000a00400076
:101ef000600c98008a845400edff370008109000b1
:101f00008000eb000028a300180032000b00e00066
:101f1000160034008b04780009057800e28f540025
:101f2000010036002a002000c80190000a01780054
:101f3000ee80570058009000030001005004980004
:101f40000000e00008003200680890000a0040002d
:101f5000600c98008a8454004240a900eeff3c00c7
:101f60008000eb00010037008080eb00010078006a
:101f70004f0678004f05be004f04be000080fa00f7
:101f800000000600010878000000060000c0da002a
:101f90000000060000c0da0000000600839f680011
:101fa0000100e00002003d0060001000e080180029
:101fb0000300e00002003d0060011100e081190013
:101fc00020fa07004f00e00002003b006000100014
:101fd000e0801800000006001afa07000400be00a6
:101fe00000000600020ab900001bb9000200b80098
:101ff000810042008100430000000600889fbe006f
:102000008a9fbe0030044200b0844a0030054b0075
:1020100090854b006000b1000898be000a90be0099
:102020000440e10005c8e10006d0e10007d8e10066
:1020300002003100680040001008e8004f05be00b3
:102040004f04be0000000600889fbe008a9fbe00ad
:102050003004be002005be000418540005985c0042
:1020600006185d0007985d00110020000440e100a3
:1020700005c8e10006d0e10007d8e1000100390001
:102080008000eb00108810004f05be004f04be001a
:10209000000006001200fa00889fbe008a9fbe0062
:1020a0008c9fbe00e0b79f00f1b79f0082bf9f00ea
:1020b00093bf9f000605be000404be000000eb00b5
:1020c000d0b79f00c0b79f00b0b79f00a0b79f00d8
:1020d00090b79f000006eb005fb19700cfb097006c
:1020e000820141003fb097000200e00004003d0083
:1020f000370007007e805700c0ff0700030037004d
:10210000330007007e805700cfff0700dfb697003f
:102110000d00e0000c0035006fb29700ffb2970091
:102120000fbb97009fbb970010002000010020000c
:102130006011b80000027200818272000203730015
:10214000838373001b0007000c06e80001042000d5
:10215000810f5600e0ff3a000d00e00004003d0052
:102160000802be000a03be007e805700a3ff0700de
:102170005fa897000000e00005003a001fb297003a
:10218000afb297003fb39700cfb3970009000700a5
:102190006fb09700ffb097000fb997009fb99700f5
:1021a0004f06be004f05be004f04be000080fa007f
:1021b000000006000100070000000600a4b79f0011
:1021c000b5b79f00c6b79f00d7b79f0000000600b5
:1021d0004f09de0082817100b3b79f004f01de001e
:1021e0008180400082807000a1b79f008fb097006f
:1021f0004f09de00000040000200700090b79f0011
:102200007fa897004f01de0081804000828070002f
:1022100081b79f000d0007004f3ade00000040002c
:1022200004007000f0af9f000800070004024200a5
:1022300085824a0006034b0087834b00dfff0700bf
:102240000802be000a03be00000006002fb297007d
:10225000bfb297004fb39700dfb3970000000600ae
:10226000881f780018002000881f780089ff070069
:102270008f87e9004f04780000000600801feb0004
:1022800084ff07008f87e90000000600889fbe00da
:102290008a9fbe00e00f5000e08f5800e00f590009
:1022a000e08f59000c003d006044b8006055b80054
:1022b0000000540081805c0002015d0083815d00ac
:1022c000180020001500070008003d001800070056
:1022d0000004eb00050037000004eb000f000700ce
:1022e00002003d001200070018002000dcff07007c
:1022f0000800e000060032006022b8006033b80039
:102300000000520081805a0002015b0083815b0063
:102310004f05be004f04be0000000600e00f520053
:10232000e08f5a00e00f5b00e08f5b0000000600ca
:102330006044b8006055b8000402540085825c0017
:1023400006035d0087835d0000000600889fbe00d5
:102350008a9fbe008c1f7800e00f5000e08f58006d
:10236000e00f5900e08f59000d003d006044b800b7
:102370006055b8000000540081805c0002015d00df
:1023800083815d001c0020000820e10009a8e10015
:102390000ab0e1000bb8e1000d003d000800370075
:1023a0000006eb00e00f5200e08f5a00e00f5b00e8
:1023b000e08f5b0006003d006044b8006055b80047
:1023c0000402540085825c0006035d0087835d0083
:1023d000aaff07000c00e000060032006022b800ef
:1023e0006033b8000000520081805a0002015b0097
:1023f00083815b004f0678004f05be004f04be008e
:0424000000000600d2
:020000040000fa
:10240400506f0000745f0000313a00002564000042
:042414000a000000ba
:020000040000fa
:1024180000000000ca0000001f00000000020400c5
:1024280000000000fa0200000c0300001c0300007a
:1024380002030000140300002c0300002403000022
:102448002c0300002c0300002c0300002c030000c8
:102458002c0300002c0300002c0300002c030000b8
:102468002c0300002c0300002c0300002c030000a8
:102478002c0300002c0300002c0300002c03000098
:102738002c0300002c0300002c0300000000fe0006
:102748000000fe0000020000000200001f00000060
:102758002f0221000eff21000e018800000000005a
:10276800000020000000e00002003200000120000c
:1027780020028800140007008d0007000000e00018
:1027880003003a00207220000100200002003700f8
:102798000000200001002000810f700001003200bd
:1027a8000f000700000020000000e00002003200d7
:1027b8000000020000000000f40502000000000014
:1027c8000040da000000fe00200020000000e000c9
:1027d800020032001000200090018800000006006e
:1027e800a1028800800478000000eb001f00370079
:1027f800e284440054a0b4009905ba00e28444007d
:1028080054a0b4009906ba00e284440054a0b4006d
:102818000006eb00476fde00fd07b200ae0188003e
:10282800636ce10003003a000ad801000000eb00e5
:102838000e003700606ce10008003a00004deb0024
:102848000a05e800020039003420ec000af0a00074
:102858008b05e900f9ff3e00040037006168e100dc
:10286800010032000086eb000b00070019c7ba0010
:102878001905ba000e04e00003003a000a00e0005f
:10288800dbff3a0000000600fe07b200ae02880037
:102898008a047800f5ff37000cd0a300e20f4d0042
:1028a8001c00390089027800354dba000a05e80095
:1028b800020039003420ec000af0a0008b05e90082
:1028c8000f003200254dba000a05e8000200390061
:1028d8003420ec000af0a0008b05e9000800320063
:1028e8000c00e0000600320015cdba000a05e80029
:1028f800020039003420ec000af0a0008b05e90042
:102908008984e80054a0b4000b00e000e2ff3a001c
:10291800000006009902ba00055d78008b05e90001
:10292800f7ff3200c82ade00055d78008b05e90054
:10293800f3ff32000c00e000f1ff320019ddba00ad
:10294800eeff37003600f800c028a9000000eb00b1
:10295800050207003600f80007020700c048a90072
:1029680010002000000207003600f800c068a90027
:1029780020002000fc0107003600f800c088a900ec
:1029880030002000f80107003600f800c608a9004a
:1029980070002000f40107003600f800c408a90000
:1029a800b0002000f00107000040da000000fe003f
:1029b800000005000000fa00d221ef000080fa00b4
:1029c800000006000000fa00d321a8000080fa00e9
:1029d800000006000000fa0088a00a00d4010000e8
:1029e8000080fb0000f0a7000000ea000000ea00f9
:1029f8004f00de00004078000080fa00000006006a
:102a08000000fa00d321a9000080fa0000000600a7
:102a18000000fa0099a00a00d40100000080fb0021
:102a280000f0a7000000ea000000ea004f00de0006
:102a3800004078000080fa00000006000000fa005c
:102a4800d301a8000080fa00000006000000fa0088
:102a5800d301a9000080fa00000006000200fa0075
:102a680030002000000f7800a10e80000000280030
:102a7800008060000000e0000300320040002000f9
:102a8800000f780015003700dca00a00d401000010
:102a98000080fb00e10f500007003200e20f5000f9
:102aa800080032000000e00009003a000000eb00d6
:102ab800000f78000900370020002000000f780080
:102ac8000600370010002000000f780003003700d0
:102ad80030002000000f7800000000001e00780081
:102ae8000080fa00000006000600fa0010079800af
:102af800210798000000eb00000f78000f00370056
:102b0800d10f800000102000008060000000e0006d
:102b18000e003a00f10f80001e00900001087800b6
:102b28001e0090000080e800100798002e0090001a
:102b38000000e900200798001e0fe8002e00900012
:102b48000000e000eeff3a0001003700000000003e
:102b58001e0078000080fa00000006000600fa0057
:102b680010079800210798000000eb00000f78007c
:102b78000e003700d00f8000620060000000e00007
:102b88000e003a001e00900010007800e00f880048
:102b98001e0090000080e800100798002e009000aa
:102ba8000000e900200798001e0fe8002e009000a2
:102bb8000000e000efff3a000100370000000000cd
:102bc8001e0078000080fa00000006000400fa00e9
:102bd800100798000040eb00004f7800190007002c
:102be8000004e00012003200d10e80001e009000a8
:102bf80001087800e10e80001e0090001100980086
:102c0800f10e80001e00900021009800010f800046
:102c18001e00900031009800110f80001e009000e7
:102c28004100980010c0b300004f78000200370040
:102c38000040eb00004f78001e4078000080fa004a
:102c4800000006000000fa0000a00a00d8010000f9
:102c58000080fb0000f0a7000000ea000000ea0086
:102c68004f00de00004078000080fa0000000600f7
:102c78000400fa00100798000040eb00004f7800ad
:102c8800190007000004e000120032001e00900046
:102c980010007800200f88001e009000100090009f
:102ca800300f88001e00900020009000400f880020
:102cb8001e00900030009000500f88001e00900009
:102cc80040009000600f880010c0b300004f7800eb
:102cd800020037000040eb00004f78001e407800eb
:102ce8000080fa00000006000000fa00c00e800014
:102cf8006200600000f0a7000000ea000000e900a0
:102d08004f00de00004078000080fa000000060056
:102d18000000fa00007c80000080fa000000060035
:102d28000200fa00faff0700000f78001e00780082
:102d3800240007000004e000020032000000280020
:102d4800710007001e0078002a0007000004e00058
:102d580002003200000024006b0007001e0078000b
:102d6800320007000004e0000200320000202000ca
:102d7800650007001e0078003a0007000004e00024
:102d880002003200000820005f0007001e007800e3
:102d9800420007000004e0000200320000042000a6
:102da800590007001e0078004a0007000004e000f0
:102db8000200320000012000530007000080fa00e2
:102dc800000006000400fa00100798000040eb001d
:102dd800004f78001e0090000000e00002003d0057
:102de80010c0b300004f78001e4078000080fa0041
:102df800000006000400fa00100798000040eb00ed
:102e0800004f78009e0090000000240000806000c1
:102e18000000e0000200320010c0b300004f78004c
:102e28001e4078000080fa00000006000400fa0046
:102e3800100798000040eb00004f78009e009000bb
:102e480000202000008060000000e0000200320046
:102e580010c0b300004f78001e4078000080fa00d0
:102e6800000006000400fa00100798000040eb007c
:102e7800004f78009e00900000082000008060004d
:102e88000000e0000200320010c0b300004f7800dc
:102e98001e4078000080fa00000006000400fa00d6
:102ea800100798000040eb00004f78009e0090004b
:102eb80000042000008060000000e00002003200f2
:102ec80010c0b300004f78001e4078000080fa0060
:102ed800000006000400fa00100798000040eb000c
:102ee800004f78001e009000700060000000e000b5
:102ef8000200320010c0b300004f78001e40780076
:102f08000080fa00000006000200fa00000f7800b6
:102f18009e80ea00007c800000806000007c8800c1
:102f28000080fa00000006000000fa00802fef0081
:102f38000080fa00000006001400fa005d00070097
:102f48000000eb00000f78000000eb00500798002d
:102f5800000600009e0000001f00000000000000a6
:102f6800aefe07000004a2000004e000fcff3a00e7
:102f7800b5fe070000000000a8fe07000004e000fe
:102f8800fdff3a00b4fe07000e00780012ff0700ac
:102f98001e007800500798006a00470037ff0700b6
:102fa8008bfe0700000000008dfe07000004a20051
:102fb8000004e000fcff3a0094fe07000000000057
:102fc80087fe07000004e000fdff3a009e0078003d
:102fd800a0aa2a00808f500002003a00228ea80082
:102fe80001003700228ea900ffff37000000fa0019
:102ff80010002300307c880060092000407c880095
:1030080010042000507c880010102000707c88007c
:1030180060092000807c880010042000907c8800d3
:10302800b82fef00ba2fef00002def00a42fef000c
:10303800a62fef00aa2fef00ae2fef00b02fef0062
:10304800b22fef007200200080072000a1092000a5
:1030580053f8200080497800814978008249780037
:103068000001eb00600420007105200043f82000f7
:103078008049780081497800824978000080fa0008
:10308800000006000200fa00000f7800210280000c
:10309800200f2000008060001e00700020028800c1
:1030a8000080fa00000006000000fa00c3e8a8004b
:1030b80000000000000000000080fa000000060088
:1030c8000000fa00080007003d000700c7ff0700de
:1030d8003bfe0700f4ff070000022000e9ff07009d
:1030e8000080fa00000006000000fa00062eef003b
:1030f800222eef00f001200010708800f0fe2f0053
:10310800f07088000c2eef00282eef000a2eef003a
:10311800262eef00082eef00242eef00e0012000fd
:1031280000708800f0192000e07088000080fa0024
:10313800000006000000fa00acff07000080fa005b
:10314800000006000000fa00007c80000080fa0001
:10315800000006000000fa00f4fe07000080fa00f4
:10316800000006000000fa0072ff07000080fa0065
:1031780000000600000f78009e007800018188009a
:10318800ffff37000000fa000000210080077800e8
:1031980080012100000188000080fa00000006007c
:1031a800201000000200000082000000ffff000065
:1031b8000010000020000000800000000000000057
:1031c8000000fa000080fa00000006000000fe007f
:0c31d8000000fe000000000000000000ed
:020000040000fa
:1031e4000000fa00d221ef0000082800d00f880068
:1031f4000080fa00000006000000fa001bf507003a
:103204000080fa00000006000000fa00c020290037
:10321400012020000001be008000eb00100020000f
:10322400f2f407000080fa00000006000000fa0033
:10323400d321a8000080fa00000006000000fa0074
:1032440088a00a00d40100000080fb0000f0a70061
:103254000000ea000000ea004f00de0000407800b1
:103264000080fa00000006000000fa00d321a90043
:103274000080fa00000006000000fa0099a00a008d
:10328400d40100000080fb0000f0a7000000ea0069
:103294000000ea004f00de00004078000080fa00e1
:1032a400000006000000fa00d301a8000080fa0024
:1032b400000006000000fa00d301a9000080fa0013
:1032c400000006000200fa00a10e800000002400a5
:1032d400008060000000e000030032000000eb000a
:1032e400000f78000200370010002000000f780063
:1032f4001e0078000080fa00000006000200fa00b8
:10330400000f78001e0078000000e00003003a007f
:10331400d5c1a90000000000010037000000000032
:103324000080fa00000006000200fa0040002000bd
:10333400000f7800a10e80000000240000806000cf
:103344000000e0000300320050002000000f78006d
:1033540015003700dca00a00d40100000080fb0047
:10336400e10f500007003200e20f50000800320065
:103374000000e00009003a000000eb00000f7800b4
:103384000900370030002000000f780006003700e5
:1033940020002000000f78000300370040002000c8
:1033a400000f7800000000001e0078000080fa0082
:1033b400000006000600fa00100798002107980094
:1033c4000000eb00000f78000e003700d00f8000e3
:1033d400610060000000e0000e003a00e10f800090
:1033e4001e009000010878001e0090000080e80094
:1033f400100798002e0090000000e90020079800b4
:103404001e0fe8002e0090000000e000efff3a00dd
:1034140001003700000000001e0078000080fa0060
:10342400000006000600fa00100798002107980023
:103434000000eb00000f78000f003700d10f800070
:1034440000202000008060000000e0000e003a0030
:103454001e00900010007800f00f88001e009000fd
:103464000080e800100798002e0090000000e9009a
:10347400200798001e0fe8002e0090000000e000d6
:10348400eeff3a0001003700000000001e00780043
:103494000080fa00000006000400fa0010079800fb
:1034a4000040eb00004f7800190007000004e00022
:1034b400120032001e00900010007800d00e880028
:1034c4001e00900010009000e00e88001e00900086
:1034d40020009000f00e88001e0090003000900044
:1034e400000f88001e00900040009000100f88001c
:1034f40010c0b300004f7800020037000040eb001a
:10350400004f78001e4078000080fa00000006009a
:103514000000fa00c00e80006100600000f0a70007
:103524000000ea000000e9004f00de0000407800df
:103534000080fa00000006000400fa00100798005a
:103544000040eb00004f7800190007000004e00081
:1035540012003200210f80001e0090000108780044
:10356400310f80001e00900011009800410f800070
:103574001e00900021009800510f80001e00900052
:1035840031009800610f80001e00900041009800f7
:1035940010c0b300004f7800020037000040eb0079
:1035a400004f78001e4078000080fa0000000600fa
:1035b4000000fa0011a00a00d80100000080fb00fe
:1035c40000f0a7000000ea000000ea004f00de005f
:1035d400004078000080fa00000006000400fa00b1
:1035e400100798001e0090000000e0000b003a0055
:1035f4001e00900010000700d1cc2c000100b80080
:103604004308de00004f780040c6b3009e407800b7
:1036140080cf500003003e000400370000c0eb00e0
:103624000300370040c6b300004f78001e40780006
:103634000080fa00000006000200fa00000f780083
:103644001e007800030007004200de000080fa003c
:10365400000006000600fa00200798002e009000e3
:103664000000400080007800c0c02000008f4000af
:103674004158800000e02f00808060002e00900000
:103684000100700040588800090ba8002e0090002b
:10369400ef0f50000b003e002e00900011002000a0
:1036a4000008dd0010079800000000008159800028
:1036b4001e009000008060000000e000fbff32006c
:1036c4000b0037002e009000700050001100200005
:1036d4000008dd00100798000000000091598000e8
:1036e4001e009000008060000000e000fbff32003c
:1036f4001e007800100078000080fa000000060028
:103704000a00fa0030079800410798006000b800ea
:10371400008fbe000000eb0020079800080037006f
:103724003e009000cbff07008000eb001e0f40001e
:103734005e9748002e0090000000e80020079800e3
:10374400ae0090004e009000808f5000f4ff3900ce
:103754002e0090000000e0000c0032002e009000cb
:103764000000d1008000eb003e024000ae82480021
:103774002e0090008000eb000001be000400be009b
:103784002ff4070000007800010037000000eb0070
:103794000080fa00000006000200fa00000f780022
:1037a4001e0078000000e00003003a00000ea800ac
:1037b40010c0b300010037000040eb000080fa00a5
:1037c400000006000200fa00000f78001e007800d6
:1037d4000000e00016003a00002bef000006200075
:1037e40010588800042bef00000320003058880094
:1037f400082bef0000082000505888000008200023
:103804000060880000f020001060880001eba80030
:1038140000000000016080000000280000806000bb
:103824000000e000fbff320010c0b30001003700cd
:103834000040eb000080fa00000006000000fa00df
:10384400007c80000080fa00000006000200fa00fc
:10385400faff0700000f78001e007800240007001c
:103864000004e0000200320000002800710007009c
:103874001e0078002a0007000004e0000200320065
:10388400000024006b0007001e00780032000700cf
:103894000004e00002003200002020006500070060
:1038a4001e0078003a0007000004e0000200320025
:1038b400000820005f0007001e0078004200070097
:1038c4000004e00002003200000420005900070058
:1038d4001e0078004a0007000004e00002003200e5
:1038e40000012000530007000080fa0000000600d9
:1038f4000400fa00100798000040eb00004f780025
:103904001e0090000000e00002003d0010c0b30063
:10391400004f78001e4078000080fa000000060086
:103924000400fa00100798000040eb00004f7800f4
:103934009e00900000002400008060000000e00071
:103944000200320010c0b300004f78001e4078001f
:103954000080fa00000006000400fa001007980036
:103964000040eb00004f78009e00900000202000f3
:10397400008060000000e0000200320010c0b300cc
:10398400004f78001e4078000080fa000000060016
:103994000400fa00100798000040eb00004f780084
:1039a4009e00900000082000008060000000e000fd
:1039b4000200320010c0b300004f78001e407800af
:1039c4000080fa00000006000400fa0010079800c6
:1039d4000040eb00004f78009e009000000420009f
:1039e400008060000000e0000200320010c0b3005c
:1039f400004f78001e4078000080fa0000000600a6
:103a04000400fa00100798000040eb00004f780013
:103a14001e009000700060000000e0000200320010
:103a240010c0b300004f78001e4078000080fa00f8
:103a3400000006000200fa00000f78009e80ea00f1
:103a4400007c800000806000007c88000080fa0018
:103a5400000006000000fa00802fef000080fa004a
:103a6400000006000000fa0000082000c0118800d1
:103a74003a22ef003c22ef0020022000f0118800df
:103a840030492000001288004222ef004c22ef004f
:103a94004e22ef005022ef005222ef005422ef009a
:103aa4005622ef005822ef005a22ef005c22ef006a
:103ab40039e2a80038a2a8003882a8000080fa00e1
:103ac400000006000000fa0000000000f011800071
:103ad400620060000000e000fcff3a00e01180009a
:103ae400620060000000e000010032003c22a900f6
:103af40020128000004078000080fa0000000600d8
:103b04000200fa00004f780000000000f01180006d
:103b1400700060000000e000fcff3a001e80fb0023
:103b2400401288000080fa00000006000000fa003d
:103b340011a00a003e0200000080fb0000f0a70074
:103b44000000ea000000ea004f00de0000407800b8
:103b54000080fa00000006000000fa00e111800075
:103b640000082000008060000000e0000700320030
:103b7400c111800000022000008060000000e0000d
:103b84000200320010002000010037000000eb00aa
:103b9400004078000080fa00000006000000fa00ef
:103ba40077a00a003c0200000080fb0000f0a700a0
:103bb4000000ea000000ea004f00de000040780048
:103bc4000080fa00000006000400fa00f0118000f2
:103bd4008000eb00008fbe001e00be00c001dd00af
:103be40002002000e01180008000eb000000710062
:103bf400818071000080fa00000006000000fa00d5
:103c040039e2a80038a2a8003882a8000080fa008f
:103c1400000006000000fa0039e2a90038a2a90059
:0c3c24003882a9000080fa0000000600b1
:020000040000fa
:103c3000ac10000020000000800000000010000018
:103c40000200000082000000ffff000002100000e0
:103c50008800000082000000010000000028100021
:103c60002910280010281000281028001018100013
:103c70000000000000000000000000000000000044
:103c8000000000000000000000000000000208002a
:103c90000101500010511000501050001050100041
:103ca0005010400010000000000000000000000064
:103cb0000000000000000000000000000000000004
:103cc000000002000802020078107900107810004d
:103cd00078107800107810006810000000000000d4
:103ce00000000000000000000000000000000000d4
:103cf000000000000000000002102a001052100016
:103d000000000000000000000000000000000000b3
:103d1000ea1000000200000080000000cc1000004b
:103d20001a00000082000000686a6c00747a4c007f
:103d30000000010000020000040008000010000064
:103d4000000020002b2d230030000000ec100000ac
:103d5000020000008200000004000000e6100000e5
:103d600004000000800000008a1000002200000013
:103d700082000000303132003334350036373800ed
:103d8000394142004344450046003000313233009f
:103d90003435360037383900616263006465660087
:103da00000000000ee100000020000008000000093
:043db000000000000f
:020000040000fa
:103db4001600fa009b00070013fd07000efd070024
:103dc400a0aa2a00100798000000eb0060079800e2
:103dd4000e80e800b0fd070014fd0700000000009d
:103de40016fd07000004a2000004e000fcff3a00f6
:103df4001dfd07000000000010fd07000004e000a6
:103e0400fdff3a00000000001bfd07000004a200b3
:103e14000004e000fcff3a0022fd0700000000005f
:103e240015fd07000004e000fdff3a0021fd070036
:103e34006c004700c0fd0700ee009000a0aa2a0015
:103e4400808f500002003a0022eea80001003700e3
:103e540022eea9000000eb005afe07000000eb0070
:103e64004dfe07000000eb00fafd0700000f78008c
:103e74009e1f780020202900801f78008ef2070002
:103e8400e487570000a82400d155200080000700d3
:103e9400f4ff37000000fa0010002300307c880093
:103ea400a0052000407c88008c2fef001002200029
:103eb400507c880010102000707c8800600920006d
:103ec400807c880010042000907c88009a2fef00ea
:103ed400b82fef00ba2fef00002def00a42fef0052
:103ee400a62fef00a82fef00aa2fef00ae2fef00b0
:103ef400b02fef00b22fef00120020008007200047
:103f0400a109200053f820008049780081497800f5
:103f1400824978001200200060042000710520000e
:103f240043f820008049780081497800824978006c
:103f340000000000207c8000610060000000e000c0
:103f4400fcff3a0000000000217c800000022000f9
:103f5400008060000000e000fbff32000080fa00f7
:103f6400000006000000fa00062eef00800020008a
:103f740010718800f00120001070880070f62d0088
:103f8400f07088000c2eef00282eef000a2eef00b0
:103f9400262eef00082eef00242eef00f001200063
:103fa4000070880070382000e07088005005200000
:103fb400b0468800a00a2000b0468800016da90020
:103fc40011002000d8210a00820d000050052000b5
:103fd400b0468800a00a2000b0468800016da80001
:103fe4000080fa00000006000200fa00000f7800ca
:103ff40021028000200f2000008060001e0070005d
:10400400200288000080fa00000006000000fa0088
:10401400c3e8a80000000000000000000080fa00cf
:10402400000006000000fa00ceff070099ff070019
:10403400300007006afc07008afe0700f3ff070050
:1040440000022000e8ff07000080fa0000000600dc
:104054000000fa008fff07000080fa00000006004d
:104064000000fa00007c80000080fa0000000600d6
:104074000000fa00f5fd07000080fa0000000600c9
:104084000000fa0073fe07000080fa00000006003a
:020000040000fa
:10409400f03fb1000180b10006003500ee030900d5
:1040a40000000000403fb1000180b100fbff3d0073
:1040b4001000b000203fb00002003500008009006d
:0840c4000000000000000600ee
:020000040000fa
:1040cc00000f78009e00780001808800ffff370009
:1040dc000000fa00c00a210080077800400c210083
:1040ec00000188000080fa00000006000000fa00c1
:0840fc000080fa00000006003c
:020000040000fa
:020000040002f8
:04be0000ffff000040
:020000040000fa
:020000040002f8
:04be2000ffffff0021
:020000040000fa
:020000040002f8
:04be3000f8ffff0018
:020000040000fa
:020000040002f8
:04be38007bffff008d
:020000040000fa
:020000040002f8
:04be40007453ff0038
:020000040000fa
:020000040002f8
:04be5000ddffff0013
:020000040000fa
:020000040002f8
:04be58000000ff00e7
:020000040000fa
:020000040002f8
:04be60000000ff00df
:020000040000fa
:020000040002f8
:04be68000000ff00d7
:020000040000fa
:020000040002f8
:04be70000000ff00cf
:020000040000fa
:020000040002f8
:04be7800ffffff00c9
:020000040000fa
:020000040002f8
:04be8000ffffff00c1
:020000040000fa
:020000040002f8
:04be8800ffffff00b9
:020000040000fa
:020000040002f8
:04be9000e0ffff00d0
:020000040000fa
:020000040002f8
:04be980094ffff0014
:020000040000fa
:020000040002f8
:04bea000ffffff00a1
:020000040000fa
:020000040002f8
:04bea800fcffff009c
:020000040000fa
:020000040002f8
:04beb000ffffff0091
:020000040000fa
:020000040002f8
:04bec000efdfff00b1
:020000040000fa
:020000040002f8
:04bed000ffffff0071
:020000040000fa
:020000040002f8
:04bee000ffffff0061
:020000040000fa
:020000040002f8
:04bef000ffffff0051
:020000040000fa
:020000040002f8
:04bf0000ffffff0040
:020000040000fa
:020000040002f8
:04bf0800bfffff0078
:020000040000fa
:020000040002f8
:04bf1000f453ff00e7
:020000040000fa
:020000040002f8
:04bf2000ffffff0020
:020000040000fa
:020000040002f8
:04bf2800ffffff0018
:020000040000fa
:020000040002f8
:04bf3000ffffff0010
:00000001FF
