:020000040000fa
:080000000002040000000000f2
:020000040000fa
:040008005803000099
:020000040000fa
:04000c006a03000083
:020000040000fa
:040010007a0300006f
:020000040000fa
:040014006003000085
:020000040000fa
:04001800720300006f
:020000040000fa
:04001c008a03000053
:020000040000fa
:040020008203000057
:020000040000fa
:040024008a0300004b
:020000040000fa
:040028008a03000047
:020000040000fa
:04002c008a03000043
:020000040000fa
:040030008a0300003f
:020000040000fa
:040034008a0300003b
:020000040000fa
:040038008a03000037
:020000040000fa
:04003c008a03000033
:020000040000fa
:040040008a0300002f
:020000040000fa
:040044008a0300002b
:020000040000fa
:040048008a03000027
:020000040000fa
:04004c008a03000023
:020000040000fa
:040050008a0300001f
:020000040000fa
:040054008a0300001b
:020000040000fa
:040058008a03000017
:020000040000fa
:04005c008a03000013
:020000040000fa
:040060008a0300000f
:020000040000fa
:040064008a0300000b
:020000040000fa
:040068008a03000007
:020000040000fa
:04006c008a03000003
:020000040000fa
:040070008a030000ff
:020000040000fa
:040074008a030000fb
:020000040000fa
:040078008a030000f7
:020000040000fa
:04007c008a030000f3
:020000040000fa
:040080008a030000ef
:020000040000fa
:040084008a030000eb
:020000040000fa
:040088008a030000e7
:020000040000fa
:04008c008a030000e3
:020000040000fa
:040090008a030000df
:020000040000fa
:040094008a030000db
:020000040000fa
:040098008a030000d7
:020000040000fa
:04009c008a030000d3
:020000040000fa
:0400a0008a030000cf
:020000040000fa
:0400a4008a030000cb
:020000040000fa
:0400a8008a030000c7
:020000040000fa
:0400ac008a030000c3
:020000040000fa
:0400b0008a030000bf
:020000040000fa
:0400b4008a030000bb
:020000040000fa
:0400b8008a030000b7
:020000040000fa
:0400bc008a030000b3
:020000040000fa
:0400c0008a030000af
:020000040000fa
:0400c4008a030000ab
:020000040000fa
:0400c8008a030000a7
:020000040000fa
:0400cc008a030000a3
:020000040000fa
:0400d0008a0300009f
:020000040000fa
:0400d4008a0300009b
:020000040000fa
:0400d8008a03000097
:020000040000fa
:0400dc008a03000093
:020000040000fa
:0400e0008a0300008f
:020000040000fa
:0400e4008a0300008b
:020000040000fa
:0400e8008a03000087
:020000040000fa
:0400ec008a03000083
:020000040000fa
:0400f0008a0300007f
:020000040000fa
:0400f4008a0300007b
:020000040000fa
:0400f8008a03000077
:020000040000fa
:0400fc008a03000073
:020000040000fa
:040100008a0300006e
:020000040000fa
:040104008a0300006a
:020000040000fa
:040108008a03000066
:020000040000fa
:04010c008a03000062
:020000040000fa
:040110008a0300005e
:020000040000fa
:040114008a0300005a
:020000040000fa
:040118008a03000056
:020000040000fa
:04011c008a03000052
:020000040000fa
:040120008a0300004e
:020000040000fa
:040124008a0300004a
:020000040000fa
:040128008a03000046
:020000040000fa
:04012c008a03000042
:020000040000fa
:040130008a0300003e
:020000040000fa
:040134008a0300003a
:020000040000fa
:040138008a03000036
:020000040000fa
:04013c008a03000032
:020000040000fa
:040140008a0300002e
:020000040000fa
:040144008a0300002a
:020000040000fa
:040148008a03000026
:020000040000fa
:04014c008a03000022
:020000040000fa
:040150008a0300001e
:020000040000fa
:040154008a0300001a
:020000040000fa
:040158008a03000016
:020000040000fa
:04015c008a03000012
:020000040000fa
:040160008a0300000e
:020000040000fa
:040164008a0300000a
:020000040000fa
:040168008a03000006
:020000040000fa
:04016c008a03000002
:020000040000fa
:040170008a030000fe
:020000040000fa
:040174008a030000fa
:020000040000fa
:040178008a030000f6
:020000040000fa
:04017c008a030000f2
:020000040000fa
:040180008a030000ee
:020000040000fa
:040184008a030000ea
:020000040000fa
:040188008a030000e6
:020000040000fa
:04018c008a030000e2
:020000040000fa
:040190008a030000de
:020000040000fa
:040194008a030000da
:020000040000fa
:040198008a030000d6
:020000040000fa
:04019c008a030000d2
:020000040000fa
:0401a0008a030000ce
:020000040000fa
:0401a4008a030000ca
:020000040000fa
:0401a8008a030000c6
:020000040000fa
:0401ac008a030000c2
:020000040000fa
:0401b0008a030000be
:020000040000fa
:0401b4008a030000ba
:020000040000fa
:0401b8008a030000b6
:020000040000fa
:0401bc008a030000b2
:020000040000fa
:0401c0008a030000ae
:020000040000fa
:0401c4008a030000aa
:020000040000fa
:0401c8008a030000a6
:020000040000fa
:0401cc008a030000a2
:020000040000fa
:0401d0008a0300009e
:020000040000fa
:0401d4008a0300009a
:020000040000fa
:0401d8008a03000096
:020000040000fa
:0401dc008a03000092
:020000040000fa
:0401e0008a0300008e
:020000040000fa
:0401e4008a0300008a
:020000040000fa
:0401e8008a03000086
:020000040000fa
:0401ec008a03000082
:020000040000fa
:0401f0008a0300007e
:020000040000fa
:0401f4008a0300007a
:020000040000fa
:0401f8008a03000076
:020000040000fa
:0401fc008a03000072
:020000040000fa
:040200008a0300006d
:020000040000fa
:040204008a03000069
:020000040000fa
:040208008a03000065
:020000040000fa
:04020c008a03000061
:020000040000fa
:040210008a0300005d
:020000040000fa
:040214008a03000059
:020000040000fa
:040218008a03000055
:020000040000fa
:04021c008a03000051
:020000040000fa
:040220008a0300004d
:020000040000fa
:040224008a03000049
:020000040000fa
:040228008a03000045
:020000040000fa
:04022c008a03000041
:020000040000fa
:040230008a0300003d
:020000040000fa
:040234008a03000039
:020000040000fa
:040238008a03000035
:020000040000fa
:04023c008a03000031
:020000040000fa
:040240008a0300002d
:020000040000fa
:040244008a03000029
:020000040000fa
:040248008a03000025
:020000040000fa
:04024c008a03000021
:020000040000fa
:040250008a0300001d
:020000040000fa
:040254008a03000019
:020000040000fa
:040258008a03000015
:020000040000fa
:04025c008a03000011
:020000040000fa
:040260008a0300000d
:020000040000fa
:040264008a03000009
:020000040000fa
:040268008a03000005
:020000040000fa
:04026c008a03000001
:020000040000fa
:040270008a030000fd
:020000040000fa
:040274008a030000f9
:020000040000fa
:040278008a030000f5
:020000040000fa
:04027c008a030000f1
:020000040000fa
:040280008a030000ed
:020000040000fa
:040284008a030000e9
:020000040000fa
:040288008a030000e5
:020000040000fa
:04028c008a030000e1
:020000040000fa
:040290008a030000dd
:020000040000fa
:040294008a030000d9
:020000040000fa
:040298008a030000d5
:020000040000fa
:04029c008a030000d1
:020000040000fa
:0402a0008a030000cd
:020000040000fa
:0402a4008a030000c9
:020000040000fa
:0402a8008a030000c5
:020000040000fa
:0402ac008a030000c1
:020000040000fa
:0402b0008a030000bd
:020000040000fa
:0402b4008a030000b9
:020000040000fa
:0402b8008a030000b5
:020000040000fa
:0402bc008a030000b1
:020000040000fa
:0402c0008a030000ad
:020000040000fa
:0402c4008a030000a9
:020000040000fa
:0402c8008a030000a5
:020000040000fa
:0402cc008a030000a1
:020000040000fa
:0402d0008a0300009d
:020000040000fa
:0402d4008a03000099
:020000040000fa
:0402d8008a03000095
:020000040000fa
:0402dc008a03000091
:020000040000fa
:0402e0008a0300008d
:020000040000fa
:0402e4008a03000089
:020000040000fa
:0402e8008a03000085
:020000040000fa
:0402ec008a03000081
:020000040000fa
:0402f0008a0300007d
:020000040000fa
:0402f4008a03000079
:020000040000fa
:0402f8008a03000075
:020000040000fa
:0402fc008a03000071
:020000040000fa
:040300008a0300006c
:020000040000fa
:040304008a03000068
:020000040000fa
:040308008a03000064
:020000040000fa
:04030c008a03000060
:020000040000fa
:040310008a0300005c
:020000040000fa
:040314008a03000058
:020000040000fa
:040318008a03000054
:020000040000fa
:04031c008a03000050
:020000040000fa
:040320008a0300004c
:020000040000fa
:100400004f0b21000eff24000e0188000000200089
:100410000000e000020032000001200020028800fd
:1004200014000700040107000000e00003003a0088
:10043000205c2100010020000200370000002000a5
:1004400001002000810f70004220ae000f00070065
:10045000000020000000e0004220ae00000002008a
:1004600000000000b6160200000000000040da00a4
:100470000000fe00e00020000000e000020032006a
:10048000002020009001880000000600a1028800e2
:10049000800478000000eb001f003700e284440075
:1004a00054a0b4009905ba00e284440054a0b400fa
:1004b0009906ba00e284440054a0b4000006eb00a0
:1004c000476fde00fd07b200ae018800636ce100fb
:1004d00003003a000ad801000000eb000e003700cc
:1004e000606ce10008003a00004deb000a05e800ee
:1004f000020039003420ec000af0a0008b05e9006e
:10050000f9ff3e00040037006168e100010032009d
:100510000086eb000b00070019c7ba001905ba00e6
:100520000e04e00003003a000a00e000dbff3a009e
:1005300000000600fe07b200ae0288008a047800c0
:10054000f5ff37000cd0a300e20f4d001c0039006e
:1005500089027800354dba000a05e800020039002a
:100560003420ec000af0a0008b05e9000f003200f7
:10057000254dba000a05e800020039003420ec00dd
:100580000af0a0008b05e900080032000c00e00032
:100590000600320015cdba000a05e8000200390055
:1005a0003420ec000af0a0008b05e9008984e80003
:1005b00054a0b4000b00e000e2ff3a000000060087
:1005c0009902ba00055d78008b05e900f7ff32005b
:1005d000c82ade00055d78008b05e900f3ff3200d4
:1005e0000c00e000f1ff320019ddba00eeff370029
:1005f0006100e10001003200100005003200f80047
:100600003400f8000002be00930188003200be00f2
:100610000100e0000700320032037800c733de003b
:10062000a7018800f607b2007f30e1000400320025
:10063000200020003400f9003200f900000006001c
:100640008100e9000500e00003003a000180090094
:1006500032100300edff37000180090032900300e3
:10066000d561ae00e9ff370030002000f1ff370010
:1006700050052000b00e8800a00a2000b00e8800af
:10068000d3e1a8000000060050052000b00e88004d
:10069000a00a2000b00e8800d3e1a90000000600e7
:1006a000ea06040000000000000004000000000052
:1006b0003600f800c028a9000000eb00330a07004c
:1006c0003600f800350a0700c048a90010002000d5
:1006d0002e0a07003600f800c068a900200020009c
:1006e0002a0a07003600f800c088a9003000200060
:1006f000260a07003600f800c608a900700020008e
:10070000220a07003600f800c408a900b000200043
:100710001e0a07000040da000000fe000a00fa008e
:1007200011002000b1bf9f00c0bf9f006a8057002a
:100730005d0207004fb897000080fa000000060035
:100740000a00fa0051002000b1bf9f00c0bf9f0007
:100750006a805700560207005fb897000080fa00d1
:1007600000000600889fbe0080047800908580000d
:100770000000e00004003a000e0007000084eb00d7
:100780000000e00008003500988580000900e000c6
:100790000500320009004400060007000000e000e8
:1007a00001003d000084eb00080078004f04be000b
:1007b00000000600800078000100e00003003a001d
:1007c0000000200090858800000005000080eb00fc
:1007d00002002000828f500002003e0091858800b8
:1007e0000000eb00000006000800fa001007980067
:1007f0002107980032079800be009000010f780092
:10080000070037002e00900010407800ae009000e6
:100810008100e800210798008f0807001e0fe900fb
:100820001e0078000000e000f6ff3a003e00900055
:100830000080fa000000060000000500a10221006f
:100840006a000700800078000080eb000100e000f3
:1008500004003500a1022100a000200002000700d2
:100860004f80de0000000600889fbe008a1f7800cf
:100870000004be00c900900069009000808f500005
:100880000500390009007800b70007008080eb0000
:100890000000e0001600350008457800490090008f
:1008a00008587800c00498001900780000b8a30028
:1008b00004003a0000a8a30007003200ea4f5400e9
:1008c00005003a00090078000d0007008080eb0069
:1008d0000000e00006003a0000c02000190060009f
:1008e0000200320049009000e00498008a80fb007a
:1008f000010078004f0578004f04be00000006009c
:10090000889fbe008a1f7800000478000800e0007d
:100910000d003a0088072100700544008004eb00b8
:10092000580078000000e00004003200f4ff0700e7
:100930000000e00001003d008084eb008a0f5400bd
:10094000f7ff3a0025003700000022001800600081
:100950008004eb0021003200a80490000f00370053
:1009600009015100384090000000fb008900780028
:100970009dff07000000e00007003c0028009000f9
:100980004004980060049800500c98001890a00053
:100990008084eb00110037008084440048019000ff
:1009a000828f5400eeff3900280090004004980028
:1009b0009800780002c020000281600001003a0027
:1009c0003800900001e8a3000200320060049800a3
:1009d00001003700500c98008004eb0009007800fb
:1009e0004f0578004f04be0000000600889fbe003f
:1009f0008a9fbe0080047800010478002c00370034
:100a0000c800900068009000808f500004003900fa
:100a100008007800540007000000e00037003500af
:100a2000004020001800600009003200a1002000f2
:100a30000900780042000700800578000b00e00004
:100a400003003200618514000a8545000400370068
:100a50000900780034000700000578008005eb00ed
:100a600048009000e8009000808050008a8f50007d
:100a700002003100010578008005eb000a017800d2
:100a80008900780021000700480090000a0040001b
:100a9000400498000b00e0000400320008007800d9
:100aa00097ff07000000e00014003a008a84440029
:100ab0001904e000d2ff3a00008020001800600016
:100ac00006003200080078008dff070080007800e3
:100ad0000080eb000100e00009003a0001c02000a6
:100ae000988060000000eb00050032004800900094
:100af000600498000000eb00010037000080eb006c
:100b00004f05be004f04be000000060080017800c3
:100b100002003700b15978000201e9000200e0004c
:100b2000fcff3a0000000600800078000101780018
:100b30003104e000fdff3a00000051000000060013
:100b40000001eb0000027800b041780081cf510035
:100b500001003a00040178000304e000f9ff3a00c4
:100b60000200780000000600889fbe008a1f7800ff
:100b700000047800c8009000680190000000eb00bd
:100b8000828f50003c0039001800780022002900b4
:100b900002016000e20f5100070032000120240032
:100ba0000000e00001003d0001202000008c7000ea
:100bb0000080eb00300037000200260002006000d9
:100bc000820f500009003a0038009000808f5000da
:100bd000060039000800780049ff0700800078000f
:100be0000080eb000100e00023003a0018057800c7
:100bf00000c020000000650018003a00a804900022
:100c00006002200008004000808f540013003a006a
:100c100000202000f0000700200498000000e00001
:100c200005003a0029049800490498008904e80066
:100c300039049800080037000a60a0000a0c780008
:100c4000400498000120200080804000310498007a
:100c5000400c9800500c98000c00070028009000f1
:100c600050049800380090006004980000002600ae
:100c7000180c70000000eb004f0578004f04be0018
:100c800000000600a06e200062003700881f780078
:100c9000e80a21001804e00003003a00f9ff070009
:100ca00020c0b300004c78004f047800000006001c
:100cb000889fbe00000478000800780010ff07003d
:100cc0008004780066800a00180000000000e00040
:100cd00002003200280090005a0007000000eb00dc
:100ce00020049800384090000004e0000500350022
:100cf0000000fb0089fe07000000e0000100320058
:100d00008084eb00181090000000e0000800320022
:100d10008bfe07000000e000010032008084eb0041
:100d200018109000470007000000eb001014980016
:100d30000008200018006000150032000001eb00e0
:100d40006000b800a30721000202d00063027a000d
:100d5000880f520005003a000000400081804800e2
:100d6000008041000008eb000600370061004000f1
:100d7000e08048000201e800e80f5000e08f5800d2
:100d8000f0ff3a00080078002e0007000e00370040
:100d9000000c780000c0eb00304498006002200096
:100da0000800400020049800400498005004980077
:100db000400c980060049800500c98007004980053
:100dc00076004400000c9800090078004f04be0033
:100dd00000000600881f78000004eb006140b800a6
:100de000e2ff2f00f3ff2f00b3000700820821006d
:100df000620078000000e00001003200acff070054
:100e00000804e800e80f5400f4ff3a004f047800ab
:100e100000000600010020000100e0000800320090
:100e2000010080000100e000050032008100e900bf
:100e3000010088008100d0000200800000b178002d
:100e4000000006000000e0002f003200c001780022
:100e5000e38f51002c0036000308a3002a003a005b
:100e6000618580000100e00002003200810f500027
:100e700004003100110098006085880016003700da
:100e800082007800110190000200e00002003200b0
:100e9000800f5100faff390011027800848240006f
:100ea000850f500018003900808f520003003a006f
:100eb0008308420001007800070037000200e000cc
:100ec0000300320083014000830f51000e003900ff
:100ed0001200980090009800900090000100e0003f
:100ee0000900320010014000828f500006003a00d5
:100ef000a20a21000009eb0010017800110841004e
:100f0000910090001100980000000600889fbe002c
:100f100000047800518580000100e00002003200ea
:100f2000010078000d00370061858000c00a2100b3
:100f300004003700910f5400250036000180e800be
:100f4000910090000100e000faff3a001000370025
:100f5000920f54001e0036000280e8001001780055
:100f60000200e000faff3a0011017800618580007c
:100f7000c00a210004003700910f5400140036000d
:100f80000180e80091009000828f5000faff3a0043
:100f900089858000888f5400010031008804780022
:100fa00009007800360007000000e00004003a0065
:100fb000888f5400050032008904d100f5ff370006
:100fc000091878009fff0700d2ff37000000eb00f0
:100fd0004f04be0000000600881f78006304400034
:100fe0000800a1008000eb00800f540021003600b3
:100ff000e30f540001003e00480020000800780084
:10100000c2ff07008000eb000000e0001900320082
:10101000900078009101780064815100880f5100a0
:10102000030031001101900002087800070037002a
:101030000881400002087800910190001301980097
:101040001001780011091400880878001001780058
:101050000000eb000200e00004003200920190006a
:101060000300e000010032000280e80050858800a3
:101070008180e800010078004f047800000006003d
:10108000800078000000eb000100e0000500340063
:1010900001007800b3fd0700e10f400001003a00b5
:1010a0000000eb000000060000c0da0000000600af
:1010b00000c0da0000000600020ab900001bb900f7
:1010c0000200b800810042008100430000000600d9
:020000040000fa
:1010d000486500006c6c00006f200000576f000036
:0c10e000726c00006421000000000000a1
:020000040000fa
:1010ec0000000000ca0000001f0000000002040005
:1010fc0000000000fa0200000c0300001c030000ba
:10110c0002030000140300002c0300002403000061
:10111c002c0300002c0300002c0300002c03000007
:10112c002c0300002c0300002c0300002c030000f7
:10113c002c0300002c0300002c0300002c030000e7
:10114c002c0300002c0300002c0300002c030000d7
:10140c002c0300002c0300002c0300000000fe0045
:10141c000000fe0000020000000200001f0000009f
:10142c002f0221000eff21000e0188000000000099
:10143c00000020000000e00002003200000120004b
:10144c0020028800140007008d0007000000e00057
:10145c0003003a0020992000010020000200370010
:10146c000000200001002000810f700001003200fc
:10147c000f000700000020000000e0000200320016
:10148c00000002000000000018080200000000002c
:10149c000040da000000fe00200020000000e00008
:1014ac0002003200100020009001880000000600ad
:1014bc00a1028800800478000000eb001f003700b8
:1014cc00e284440054a0b4009905ba00e2844400bc
:1014dc0054a0b4009906ba00e284440054a0b400ad
:1014ec000006eb00476fde00fd07b200ae0188007e
:1014fc00636ce10003003a000ad801000000eb0025
:10150c000e003700606ce10008003a00004deb0063
:10151c000a05e800020039003420ec000af0a000b3
:10152c008b05e900f9ff3e00040037006168e1001b
:10153c00010032000086eb000b00070019c7ba004f
:10154c001905ba000e04e00003003a000a00e0009e
:10155c00dbff3a0000000600fe07b200ae02880076
:10156c008a047800f5ff37000cd0a300e20f4d0081
:10157c001c00390089027800354dba000a05e800d4
:10158c00020039003420ec000af0a0008b05e900c1
:10159c000f003200254dba000a05e80002003900a0
:1015ac003420ec000af0a0008b05e90008003200a2
:1015bc000c00e0000600320015cdba000a05e80068
:1015cc00020039003420ec000af0a0008b05e90081
:1015dc008984e80054a0b4000b00e000e2ff3a005c
:1015ec00000006009902ba00055d78008b05e90041
:1015fc00f7ff3200c82ade00055d78008b05e90094
:10160c00f3ff32000c00e000f1ff320019ddba00ec
:10161c00eeff37003600f800c028a9000000eb00f0
:10162c003d0307003600f8003f030700c048a9003f
:10163c0010002000380307003600f800c068a9002d
:10164c0020002000340307003600f800c088a900f1
:10165c0030002000300307003600f800c608a9004f
:10166c00700020002c0307003600f800c408a90005
:10167c00b0002000280307000040da000000fe0044
:10168c00000005000000fa0000032000001888008c
:10169c000223ef000423ef000623ef000823ef00e2
:1016ac0000012000501888000c23ef000e23ef00df
:1016bc001023ef001223ef001423ef001623ef008a
:1016cc001823ef001a23ef001c23ef001e23ef005a
:1016dc002023ef002223ef002423ef002623ef002a
:1016ec002823ef002c23ef006223ef009823ef0058
:1016fc00ce23ef002e23ef006423ef009a23ef009c
:10170c00d023ef003023ef006623ef009c23ef0083
:10171c00d223ef0080012000901988008001200066
:10172c00401b880080012000f01c8800c0002000b5
:10173c00a01e88003423ef006a23ef00a023ef00e3
:10174c00d623ef003623ef006c23ef00a223ef002b
:10175c00d823ef003823ef006e23ef00a423ef0013
:10176c00da23ef003a23ef007023ef00a623ef00fb
:10177c00dc23ef003c23ef007223ef00a823ef00e3
:10178c00de23ef003e23ef007423ef00aa23ef00cb
:10179c00e023ef004023ef007623ef00ac23ef00b3
:1017ac00e223ef004223ef007823ef00ae23ef009b
:1017bc00e423ef004423ef007a23ef00b023ef0083
:1017cc00e623ef004623ef007c23ef00b223ef006b
:1017dc00e823ef004823ef007e23ef00b423ef0053
:1017ec00ea23ef004a23ef008023ef00b623ef003b
:1017fc00ec23ef004c23ef008223ef00b823ef0023
:10180c00ee23ef00a0102000701a8800a01020001a
:10181c00201c8800a0102000d01d8800a0102000e3
:10182c00801f88005023ef008623ef00bc23ef00bd
:10183c00f223ef0040212000901a88004021200064
:10184c00401c880040212000f01d88004021200011
:10185c00a01f88005423ef008a23ef00c023ef0061
:10186c00f623ef005623ef008c23ef00c223ef008a
:10187c00f823ef005823ef008e23ef00c423ef0072
:10188c00fa23ef005a23ef009023ef00c623ef005a
:10189c00fc23ef005c23ef009223ef00c823ef0042
:1018ac00fe23ef00800028005019880080002800db
:1018bc00001b880080002800b01c880080002800d5
:1018cc00601e88000080fa00000006000000fa008c
:1018dc000080fa00000006000000fa004040800082
:1018ec00680060000000e00002003200f7ff070013
:1018fc000868a9000080fa00000006000000fa0049
:10190c000080fa00000006000000fa004040800051
:10191c00700060000000e00002003200f7ff0700da
:10192c000888a9000080fa00000006000000fa00f8
:10193c000080fa00000006000000fa004140800020
:10194c0000022000008060000000e0000200320075
:10195c00f6ff070008a8a9000080fa0000000600a6
:10196c000000fa000080fa00000006000000fa00f7
:10197c004140800000042000008060000000e00076
:10198c0002003200f6ff070008c8a9000080fa0028
:10199c00000006000000fa000080fa0000000600bb
:1019ac000000fa00a14080000020200000806000b0
:1019bc000000e00002003200f6ff07001528a90025
:1019cc000080fa00000006000000fa000080fa0017
:1019dc00000006000000fa00a1408000004020003a
:1019ec00008060000000e00002003200f6ff0700fb
:1019fc001548a9000080fa00000006000000fa005b
:101a0c000080fa00000006000000fa00a1408000ef
:101a1c0000802000008060000000e0000200320026
:101a2c00f6ff07001568a9000080fa000000060008
:101a3c000000fa000080fa00000006000000fa0026
:101a4c00a140800000002100008060000000e00048
:101a5c0002003200f6ff07001588a9000080fa008a
:101a6c00000006000000fa000080fa0000000600ea
:101a7c000000fa00a14080000000220000806000fd
:101a8c000000e00002003200f6ff070015a8a900d4
:101a9c000080fa00000006000000fa000080fa0046
:101aac00000006000000fa00a140800000002400a5
:101abc00008060000000e00002003200f6ff07002a
:101acc0015c8a9000080fa00000006000000fa000a
:101adc00d221ef000080fa00000006000000fa009e
:101aec00d321a8000080fa00000006000000fa00d4
:101afc0088a00a00d40100000080fb0000f0a700c1
:101b0c000000ea000000ea004f00de000040780010
:101b1c000080fa00000006000000fa00d321a900a2
:101b2c000080fa00000006000000fa0099a00a00ec
:101b3c00d40100000080fb0000f0a7000000ea00c8
:101b4c000000ea004f00de00004078000080fa0040
:101b5c00000006000000fa00d301a8000080fa0083
:101b6c00000006000000fa00d301a9000080fa0072
:101b7c00000006000200fa0030002000000f780080
:101b8c00a10e800000002800008060000000e00032
:101b9c000300320040002000000f780015003700d1
:101bac00dca00a00d40100000080fb00e10f500013
:101bbc0007003200e20f5000080032000000e00085
:101bcc0009003a000000eb00000f78000900370014
:101bdc0020002000000f78000600370010002000c5
:101bec00000f78000300370030002000000f780051
:101bfc00000000001e0078000080fa0000000600c3
:101c0c000600fa0010079800210798000000eb006e
:101c1c00000f78000f003700d10f8000001020005b
:101c2c0000060000d60100001f00000000806000cc
:101c3c000000e0000e003a00f10f80001e00900042
:101c4c00010878001e0090000080e8001007980042
:101c5c002e0090000000e900200798001e0fe800fd
:101c6c002e0090000000e000eeff3a00010037006b
:101c7c00000000001e0078000080fa000000060042
:101c8c000600fa0010079800210798000000eb00ee
:101c9c00000f78000e003700d00f8000620060004b
:101cac000000e0000e003a001e00900010007800ca
:101cbc00e00f88001e0090000080e80010079800dc
:101ccc002e0090000000e900200798001e0fe8008d
:101cdc002e0090000000e000efff3a0001003700fa
:101cec00000000001e0078000080fa0000000600d2
:101cfc000400fa00100798000040eb00004f780039
:101d0c00190007000004e00012003200d10e800020
:101d1c001e00900001087800e10e80001e0090006b
:101d2c0011009800f10e80001e0090002100980018
:101d3c00010f80001e00900031009800110f8000f0
:101d4c001e0090004100980010c0b300004f7800b6
:101d5c00020037000040eb00004f78001e40780076
:101d6c000080fa00000006000000fa0000a00a0043
:101d7c00d80100000080fb0000f0a7000000ea0082
:101d8c000000ea004f00de00004078000080fa00fe
:101d9c00000006000400fa00100798000040eb0059
:101dac00004f7800190007000004e0001200320018
:101dbc001e00900010007800200f88001e0090007c
:101dcc0010009000300f88001e0090002000900042
:101ddc00400f88001e00900030009000500f8800cb
:101dec001e00900040009000600f880010c0b300ef
:101dfc00004f7800020037000040eb00004f7800e5
:101e0c001e4078000080fa00000006000000fa0076
:101e1c00c00e80006200600000f0a7000000ea0025
:101e2c000000e9004f00de00004078000080fa005e
:101e3c00000006000000fa00007c80000080fa0020
:101e4c00000006000200fa00faff0700000f7800fd
:101e5c001e007800240007000004e000020032009d
:101e6c0000002800710007001e0078002a000700ff
:101e7c000004e00002003200000024006b000700a8
:101e8c001e007800320007000004e000020032005f
:101e9c0000202000650007001e0078003a000700b3
:101eac000004e00002003200000820005f00070080
:101ebc001e007800420007000004e000020032001f
:101ecc0000042000590007001e0078004a0007009b
:101edc000004e00002003200000120005300070063
:101eec000080fa00000006000400fa0010079800b9
:101efc000040eb00004f78001e0090000000e00056
:101f0c0002003d0010c0b300004f78001e40780066
:101f1c000080fa00000006000400fa001007980088
:101f2c000040eb00004f78009e0090000000240061
:101f3c00008060000000e0000200320010c0b3001e
:101f4c00004f78001e4078000080fa000000060068
:101f5c000400fa00100798000040eb00004f7800d6
:101f6c009e00900000202000008060000000e00037
:101f7c000200320010c0b300004f78001e40780001
:101f8c000080fa00000006000400fa001007980018
:101f9c000040eb00004f78009e00900000082000ed
:101fac00008060000000e0000200320010c0b300ae
:101fbc00004f78001e4078000080fa0000000600f8
:101fcc000400fa00100798000040eb00004f780066
:101fdc009e00900000042000008060000000e000e3
:101fec000200320010c0b300004f78001e40780091
:101ffc000080fa00000006000400fa0010079800a8
:10200c000040eb00004f78001e0090007000600054
:10201c000000e0000200320010c0b300004f780056
:10202c001e4078000080fa00000006000200fa0052
:10203c00000f78009e80ea00007c80000080600029
:10204c00007c88000080fa00000006000000fa0006
:10205c00802fef000080fa00000006001600fa0046
:10206c00870007000000eb00100798000000eb0051
:10207c006007980000000000aefe07000004a200fc
:10208c000004e000fcff3a00b5fe07000000000071
:10209c00a8fe07000004e000fdff3a00b4fe0700b4
:1020ac000e80e80012ff07001e00900060079800e9
:1020bc006c00470037ff07008bfe07000000000094
:1020cc008dfe07000004a2000004e000fcff3a00b3
:1020dc0094fe07000000000087fe07000004e000eb
:1020ec00fdff3a009e009000a0aa2a00808f5000ad
:1020fc0002003a00228ea80001003700228ea900af
:10210c000000eb00000f7800060037009e007800fe
:10211c00711a880000a821006100200073000700dc
:10212c001e0fe800e00f20009e007800808f50000a
:10213c00f6ff3600f2ff37000000fa001000230013
:10214c00307c880060092000407c8800100420004e
:10215c00507c880010102000707c880060092000e2
:10216c00807c880010042000907c8800b82fef0041
:10217c00ba2fef00002def00a42fef00a62fef00d9
:10218c00aa2fef00ae2fef00b02fef00b22fef0011
:10219c007200200080072000a109200053f82000c5
:1021ac008049780081497800824978000001eb0071
:1021bc00600420007105200043f82000804978005d
:1021cc0081497800824978000080fa0000000600fe
:1021dc000000fa00062eef00222eef00f001200086
:1021ec0010708800f0ae2a00f07088000c2eef0002
:1021fc00282eef000a2eef00262eef00082eef00ff
:10220c00242eef00e001200000708800f01920005f
:10221c00e070880050052000b0468800a00a20001d
:10222c00b0468800016da90050052000b04688001a
:10223c00a00a2000b0468800016da8000080fa00ba
:10224c00000006000200fa00000f78002102800056
:10225c00200f2000008060001e007000200288000b
:10226c000080fa00000006000000fa00c3e8a80095
:10227c0000000000000000000080fa0000000600d2
:10228c000000fa00d2ff070039000700aaff070080
:10229c0011fe0700fefc0700f3ff07000002200000
:1022ac00e8ff07000080fa00000006000000fa00ba
:1022bc00a1ff07000080fa00000006000000fa00f1
:1022cc00007c80000080fa00000006000000fa008c
:1022dc00dcfe07000080fa00000006000000fa0097
:1022ec005aff07000080fa0000000600f03fb10022
:1022fc000180b10006003500ee030900000000006b
:10230c00403fb1000180b100fbff3d001000b00068
:10231c00203fb000020035000080090000000000e2
:10232c0000000600000f78009e00780001818800f4
:10233c00ffff37000000fa00000021008007780042
:10234c0080012100000188000080fa0000000600d6
:10235c00201000000200000082000000ffff0000bf
:10236c0000100000200000008000000000000000b1
:10237c000000fa000080fa00000006000000fe00d9
:0c238c000000fe00000000000000000047
:020000040000fa
:102398000000fa00d221ef0000082800d00f8800c2
:1023a8000080fa00000006000000fa00aef80700fe
:1023b8000080fa00000006000000fa00608728008c
:1023c800012020000001be008000eb00100020006a
:1023d80085f807000080fa00000006000000fa00f7
:1023e800d321a8000080fa00000006000000fa00cf
:1023f80088a00a00d40100000080fb0000f0a700bc
:102408000000ea000000ea004f00de00004078000b
:102418000080fa00000006000000fa00d321a9009d
:102428000080fa00000006000000fa0099a00a00e7
:10243800d40100000080fb0000f0a7000000ea00c3
:102448000000ea004f00de00004078000080fa003b
:10245800000006000000fa00d301a8000080fa007e
:10246800000006000000fa00d301a9000080fa006d
:10247800000006000200fa00a10e800000002400ff
:10248800008060000000e000030032000000eb0064
:10249800000f78000200370010002000000f7800bd
:1024a8001e0078000080fa00000006000200fa0012
:1024b800000f78001e0078000000e00003003a00da
:1024c800d5c1a9000000000001003700000000008d
:1024d8000080fa00000006000200fa004000200018
:1024e800000f7800a10e800000002400008060002a
:1024f8000000e0000300320050002000000f7800c8
:1025080015003700dca00a00d40100000080fb00a1
:10251800e10f500007003200e20f500008003200bf
:102528000000e00009003a000000eb00000f78000e
:102538000900370030002000000f7800060037003f
:1025480020002000000f7800030037004000200022
:10255800000f7800000000001e0078000080fa00dc
:10256800000006000600fa001007980021079800ee
:102578000000eb00000f78000e003700d00f80003d
:10258800610060000000e0000e003a00e10f8000ea
:102598001e009000010878001e0090000080e800ee
:1025a800100798002e0090000000e900200798000e
:1025b8001e0fe8002e0090000000e000efff3a0038
:1025c80001003700000000001e0078000080fa00bb
:1025d800000006000600fa0010079800210798007e
:1025e8000000eb00000f78000f003700d10f8000cb
:1025f80000202000008060000000e0000e003a008b
:102608001e00900010007800f00f88001e00900057
:102618000080e800100798002e0090000000e900f4
:10262800200798001e0fe8002e0090000000e00030
:10263800eeff3a0001003700000000001e0078009d
:102648000080fa00000006000400fa001007980055
:102658000040eb00004f7800190007000004e0007c
:10266800120032001e00900010007800d00e880082
:102678001e00900010009000e00e88001e009000e0
:1026880020009000f00e88001e009000300090009e
:10269800000f88001e00900040009000100f880076
:1026a80010c0b300004f7800020037000040eb0074
:1026b800004f78001e4078000080fa0000000600f5
:1026c8000000fa00c00e80006100600000f0a70062
:1026d8000000ea000000e9004f00de00004078003a
:1026e8000080fa00000006000400fa0010079800b5
:1026f8000040eb00004f7800190007000004e000dc
:1027080012003200210f80001e009000010878009e
:10271800310f80001e00900011009800410f8000ca
:102728001e00900021009800510f80001e009000ac
:1027380031009800610f80001e0090004100980051
:1027480010c0b300004f7800020037000040eb00d3
:10275800004f78001e4078000080fa000000060054
:102768000000fa0011a00a00d80100000080fb0058
:1027780000f0a7000000ea000000ea004f00de00b9
:10278800004078000080fa00000006000000fa000f
:10279800007c80000080fa00000006000200fa00b9
:1027a800faff0700000f78001e00780024000700d9
:1027b8000004e00002003200000028007100070059
:1027c8001e0078002a0007000004e0000200320022
:1027d800000024006b0007001e007800320007008c
:1027e8000004e0000200320000202000650007001d
:1027f8001e0078003a0007000004e00002003200e2
:10280800000820005f0007001e0078004200070053
:102818000004e00002003200000420005900070014
:102828001e0078004a0007000004e00002003200a1
:1028380000012000530007000080fa000000060095
:102848000400fa00100798000040eb00004f7800e1
:102858001e0090000000e00002003d0010c0b30020
:10286800004f78001e4078000080fa000000060043
:102878000400fa00100798000040eb00004f7800b1
:102888009e00900000002400008060000000e0002e
:102898000200320010c0b300004f78001e407800dc
:1028a8000080fa00000006000400fa0010079800f3
:1028b8000040eb00004f78009e00900000202000b0
:1028c800008060000000e0000200320010c0b30089
:1028d800004f78001e4078000080fa0000000600d3
:1028e8000400fa00100798000040eb00004f780041
:1028f8009e00900000082000008060000000e000ba
:102908000200320010c0b300004f78001e4078006b
:102918000080fa00000006000400fa001007980082
:102928000040eb00004f78009e009000000420005b
:10293800008060000000e0000200320010c0b30018
:10294800004f78001e4078000080fa000000060062
:102958000400fa00100798000040eb00004f7800d0
:102968001e009000700060000000e00002003200cd
:1029780010c0b300004f78001e4078000080fa00b5
:10298800000006000200fa00000f78009e80ea00ae
:10299800007c800000806000007c88000080fa00d5
:1029a800000006000000fa00802fef000080fa0007
:1029b800000006000000fa0000082000c01188008e
:1029c8003a22ef003c22ef0020022000f01188009c
:1029d80030492000001288004222ef004c22ef000c
:1029e8004e22ef005022ef005222ef005422ef0057
:1029f8005622ef005822ef005a22ef005c22ef0027
:102a080039e2a80038a2a8003882a8000080fa009d
:102a1800000006000000fa0000000000f01180002d
:102a2800620060000000e000fcff3a00e011800056
:102a3800620060000000e000010032003c22a900b2
:102a480020128000004078000080fa000000060094
:102a58000200fa00004f780000000000f01180002a
:102a6800700060000000e000fcff3a001e80fb00e0
:102a7800401288000080fa00000006000000fa00fa
:102a880011a00a003e0200000080fb0000f0a70031
:102a98000000ea000000ea004f00de000040780075
:102aa8000080fa00000006000000fa00e111800032
:102ab80000082000008060000000e00007003200ed
:102ac800c111800000022000008060000000e000ca
:102ad8000200320010002000010037000000eb0067
:102ae800004078000080fa00000006000000fa00ac
:102af80077a00a003c0200000080fb0000f0a7005d
:102b08000000ea000000ea004f00de000040780004
:102b18000080fa00000006000400fa00f0118000ae
:102b28008000eb00008fbe001e00be00c001dd006b
:102b380002002000e01180008000eb00000071001e
:102b4800818071000080fa00000006000000fa0091
:102b580039e2a80038a2a8003882a8000080fa004c
:102b6800000006000000fa0039e2a90038a2a90016
:0c2b78003882a9000080fa00000006006e
:020000040000fa
:102b84008a100000200000008000000000100000f7
:102b94000200000082000000ffff0000021000009d
:102ba40088000000820000000100000000281000de
:102bb40029102800102810002810280010181000d0
:102bc4000000000000000000000000000000000001
:102bd40000000000000000000000000000020800e7
:102be40001015000105110005010500010501000fe
:102bf4005010400010000000000000000000000021
:102c040000000000000000000000000000000000c0
:102c14000000020008020200781079001078100009
:102c24007810780010781000681000000000000090
:102c34000000000000000000000000000000000090
:102c4400000000000000000002102a0010521000d2
:102c54000000000000000000000000000000000070
:102c6400ae1000000200000080000000b010000060
:102c7400020000008200000004000000aa1000000e
:102c84000400000080000000b210000002000000f8
:082c94008000000000000000b8
:020000040000fa
:102c9c000000fa0010002300307c8800a005200002
:102cac00407c88008c2fef0010022000507c8800a4
:102cbc0010102000707c880060092000807c880047
:102ccc0010042000907c88009a2fef00b82fef00a2
:102cdc00ba2fef00002def00a42fef00a62fef006e
:102cec00a82fef00aa2fef00ae2fef00b02fef00b0
:102cfc00b22fef001200200080072000a109200055
:102d0c0053f8200080497800814978008249780086
:102d1c0012002000600420007105200043f8200000
:102d2c0080497800814978008249780000000000d1
:102d3c00207c8000610060000000e000fcff3a0095
:102d4c0000000000217c8000000220000080600058
:102d5c000000e000fbff32000080fa0000000600db
:102d6c001400fa005d00070092fd07008dfd0700be
:102d7c00a0aa2a00000f78000000eb005007980072
:102d8c000e0078002ffe070093fd070000000000e6
:102d9c0095fd07000004a2000004e000fcff3a00cf
:102dac009cfd0700000000008ffd07000004e00000
:102dbc00fdff3a00000000009afd07000004a2008d
:102dcc000004e000fcff3a00a1fd07000000000039
:102ddc0094fd07000004e000fdff3a00a0fd070091
:102dec006a0047003ffe0700de009000a0aa2a0000
:102dfc00808f500002003a0022eea800010037003c
:102e0c0022eea9008086280089f6070000a824007d
:102e1c00d15520004c000700faff37000000fa00e3
:102e2c00062eef008000200010718800f0012000b9
:102e3c001070880070a62a00f07088000c2eef002d
:102e4c00282eef000a2eef00262eef00082eef00a2
:102e5c00242eef00f0012000007088007038200054
:102e6c00e070880050052000b0468800a00a2000c1
:102e7c00b0468800016da90011002000d8210a007d
:102e8c00820d000050052000b0468800a00a2000ea
:102e9c00b0468800016da8000080fa000000060012
:102eac000200fa00000f780021028000200f2000a1
:102ebc00008060001e007000200288000080fa0074
:102ecc00000006000000fa00c3e8a80000000000a3
:102edc00000000000080fa00000006000000fa006c
:102eec00ceff07006aff07003000070027fd070030
:102efc00affe0700f3ff070000022000e8ff070009
:102f0c000080fa00000006000000fa0060ff0700d5
:102f1c000080fa00000006000000fa00007c80002f
:102f2c000080fa00000006000000fa001afe0700fc
:102f3c000080fa00000006000000fa0098fe07006e
:082f4c000080fa0000000600fd
:020000040000fa
:102f5400f03fb1000180b10006003500ee03090026
:102f640000000000403fb1000180b100fbff3d00c4
:102f74001000b000203fb0000200350000800900be
:082f840000000000000006003f
:020000040000fa
:102f8c00000f78009e00780001808800ffff37005a
:102f9c000000fa00a008210080077800200a210018
:102fac00000188000080fa00000006000000fa0012
:082fbc000080fa00000006008d
:020000040000fa
:020000040002f8
:04be0000ffff000040
:020000040000fa
:020000040002f8
:04be2000ffffff0021
:020000040000fa
:020000040002f8
:04be3000f8ffff0018
:020000040000fa
:020000040002f8
:04be38007bffff008d
:020000040000fa
:020000040002f8
:04be40007453ff0038
:020000040000fa
:020000040002f8
:04be5000ddffff0013
:020000040000fa
:020000040002f8
:04be58000000ff00e7
:020000040000fa
:020000040002f8
:04be60000000ff00df
:020000040000fa
:020000040002f8
:04be68000000ff00d7
:020000040000fa
:020000040002f8
:04be70000000ff00cf
:020000040000fa
:020000040002f8
:04be7800ffffff00c9
:020000040000fa
:020000040002f8
:04be8000ffffff00c1
:020000040000fa
:020000040002f8
:04be8800ffffff00b9
:020000040000fa
:020000040002f8
:04be9000e0ffff00d0
:020000040000fa
:020000040002f8
:04be980094ffff0014
:020000040000fa
:020000040002f8
:04bea000ffffff00a1
:020000040000fa
:020000040002f8
:04bea800fcffff009c
:020000040000fa
:020000040002f8
:04beb000ffffff0091
:020000040000fa
:020000040002f8
:04bec000efaaff00e6
:020000040000fa
:020000040002f8
:04bed000ffffff0071
:020000040000fa
:020000040002f8
:04bee000ffffff0061
:020000040000fa
:020000040002f8
:04bef000ffffff0051
:020000040000fa
:020000040002f8
:04bf0000ffffff0040
:020000040000fa
:020000040002f8
:04bf0800bfffff0078
:020000040000fa
:020000040002f8
:04bf1000f453ff00e7
:020000040000fa
:020000040002f8
:04bf2000ffffff0020
:020000040000fa
:020000040002f8
:04bf2800ffffff0018
:020000040000fa
:020000040002f8
:04bf3000ffffff0010
:00000001FF
