:020000040000fa
:080000000002040000000000f2
:020000040000fa
:04000800fa020000f8
:020000040000fa
:04000c000c030000e1
:020000040000fa
:040010001c030000cd
:020000040000fa
:0400140002030000e3
:020000040000fa
:0400180014030000cd
:020000040000fa
:04001c002c030000b1
:020000040000fa
:0400200024030000b5
:020000040000fa
:040024002c030000a9
:020000040000fa
:040028002c030000a5
:020000040000fa
:04002c002c030000a1
:020000040000fa
:040030002c0300009d
:020000040000fa
:040034002c03000099
:020000040000fa
:040038002c03000095
:020000040000fa
:04003c002c03000091
:020000040000fa
:040040002c0300008d
:020000040000fa
:040044002c03000089
:020000040000fa
:040048002c03000085
:020000040000fa
:04004c002c03000081
:020000040000fa
:040050002c0300007d
:020000040000fa
:040054002c03000079
:020000040000fa
:040058002c03000075
:020000040000fa
:04005c002c03000071
:020000040000fa
:040060002c0300006d
:020000040000fa
:040064002c03000069
:020000040000fa
:040068002c03000065
:020000040000fa
:04006c002c03000061
:020000040000fa
:040070002c0300005d
:020000040000fa
:040074002c03000059
:020000040000fa
:040078002c03000055
:020000040000fa
:04007c002c03000051
:020000040000fa
:040080002c0300004d
:020000040000fa
:040084002c03000049
:020000040000fa
:040088002c03000045
:020000040000fa
:04008c002c03000041
:020000040000fa
:040090002c0300003d
:020000040000fa
:040094002c03000039
:020000040000fa
:040098002c03000035
:020000040000fa
:04009c002c03000031
:020000040000fa
:0400a0002c0300002d
:020000040000fa
:0400a4002c03000029
:020000040000fa
:0400a8002c03000025
:020000040000fa
:0400ac002c03000021
:020000040000fa
:0400b0002c0300001d
:020000040000fa
:0400b4002c03000019
:020000040000fa
:0400b8002c03000015
:020000040000fa
:0400bc002c03000011
:020000040000fa
:0400c0002c0300000d
:020000040000fa
:0400c4002c03000009
:020000040000fa
:0400c8002c03000005
:020000040000fa
:0400cc002c03000001
:020000040000fa
:0400d0002c030000fd
:020000040000fa
:0400d4002c030000f9
:020000040000fa
:0400d8002c030000f5
:020000040000fa
:0400dc002c030000f1
:020000040000fa
:0400e0002c030000ed
:020000040000fa
:0400e4002c030000e9
:020000040000fa
:0400e8002c030000e5
:020000040000fa
:0400ec002c030000e1
:020000040000fa
:0400f0002c030000dd
:020000040000fa
:0400f4002c030000d9
:020000040000fa
:0400f8002c030000d5
:020000040000fa
:0400fc002c030000d1
:020000040000fa
:040100002c030000cc
:020000040000fa
:040104002c030000c8
:020000040000fa
:040108002c030000c4
:020000040000fa
:04010c002c030000c0
:020000040000fa
:040110002c030000bc
:020000040000fa
:040114002c030000b8
:020000040000fa
:040118002c030000b4
:020000040000fa
:04011c002c030000b0
:020000040000fa
:040120002c030000ac
:020000040000fa
:040124002c030000a8
:020000040000fa
:040128002c030000a4
:020000040000fa
:04012c002c030000a0
:020000040000fa
:040130002c0300009c
:020000040000fa
:040134002c03000098
:020000040000fa
:040138002c03000094
:020000040000fa
:04013c002c03000090
:020000040000fa
:040140002c0300008c
:020000040000fa
:040144002c03000088
:020000040000fa
:040148002c03000084
:020000040000fa
:04014c002c03000080
:020000040000fa
:040150002c0300007c
:020000040000fa
:040154002c03000078
:020000040000fa
:040158002c03000074
:020000040000fa
:04015c002c03000070
:020000040000fa
:040160002c0300006c
:020000040000fa
:040164002c03000068
:020000040000fa
:040168002c03000064
:020000040000fa
:04016c002c03000060
:020000040000fa
:040170002c0300005c
:020000040000fa
:040174002c03000058
:020000040000fa
:040178002c03000054
:020000040000fa
:04017c002c03000050
:020000040000fa
:040180002c0300004c
:020000040000fa
:040184002c03000048
:020000040000fa
:040188002c03000044
:020000040000fa
:04018c002c03000040
:020000040000fa
:040190002c0300003c
:020000040000fa
:040194002c03000038
:020000040000fa
:040198002c03000034
:020000040000fa
:04019c002c03000030
:020000040000fa
:0401a0002c0300002c
:020000040000fa
:0401a4002c03000028
:020000040000fa
:0401a8002c03000024
:020000040000fa
:0401ac002c03000020
:020000040000fa
:0401b0002c0300001c
:020000040000fa
:0401b4002c03000018
:020000040000fa
:0401b8002c03000014
:020000040000fa
:0401bc002c03000010
:020000040000fa
:0401c0002c0300000c
:020000040000fa
:0401c4002c03000008
:020000040000fa
:0401c8002c03000004
:020000040000fa
:0401cc002c03000000
:020000040000fa
:0401d0002c030000fc
:020000040000fa
:0401d4002c030000f8
:020000040000fa
:0401d8002c030000f4
:020000040000fa
:0401dc002c030000f0
:020000040000fa
:0401e0002c030000ec
:020000040000fa
:0401e4002c030000e8
:020000040000fa
:0401e8002c030000e4
:020000040000fa
:0401ec002c030000e0
:020000040000fa
:0401f0002c030000dc
:020000040000fa
:0401f4002c030000d8
:020000040000fa
:0401f8002c030000d4
:020000040000fa
:0401fc002c030000d0
:020000040000fa
:040200002c030000cb
:020000040000fa
:040204002c030000c7
:020000040000fa
:040208002c030000c3
:020000040000fa
:04020c002c030000bf
:020000040000fa
:040210002c030000bb
:020000040000fa
:040214002c030000b7
:020000040000fa
:040218002c030000b3
:020000040000fa
:04021c002c030000af
:020000040000fa
:040220002c030000ab
:020000040000fa
:040224002c030000a7
:020000040000fa
:040228002c030000a3
:020000040000fa
:04022c002c0300009f
:020000040000fa
:040230002c0300009b
:020000040000fa
:040234002c03000097
:020000040000fa
:040238002c03000093
:020000040000fa
:04023c002c0300008f
:020000040000fa
:040240002c0300008b
:020000040000fa
:040244002c03000087
:020000040000fa
:040248002c03000083
:020000040000fa
:04024c002c0300007f
:020000040000fa
:040250002c0300007b
:020000040000fa
:040254002c03000077
:020000040000fa
:040258002c03000073
:020000040000fa
:04025c002c0300006f
:020000040000fa
:040260002c0300006b
:020000040000fa
:040264002c03000067
:020000040000fa
:040268002c03000063
:020000040000fa
:04026c002c0300005f
:020000040000fa
:040270002c0300005b
:020000040000fa
:040274002c03000057
:020000040000fa
:040278002c03000053
:020000040000fa
:04027c002c0300004f
:020000040000fa
:040280002c0300004b
:020000040000fa
:040284002c03000047
:020000040000fa
:040288002c03000043
:020000040000fa
:04028c002c0300003f
:020000040000fa
:040290002c0300003b
:020000040000fa
:040294002c03000037
:020000040000fa
:040298002c03000033
:020000040000fa
:04029c002c0300002f
:020000040000fa
:0402a0002c0300002b
:020000040000fa
:0402a4002c03000027
:020000040000fa
:0402a8002c03000023
:020000040000fa
:0402ac002c0300001f
:020000040000fa
:0402b0002c0300001b
:020000040000fa
:0402b4002c03000017
:020000040000fa
:0402b8002c03000013
:020000040000fa
:0402bc002c0300000f
:020000040000fa
:0402c0002c0300000b
:020000040000fa
:0402c4002c03000007
:020000040000fa
:0402c8002c03000003
:020000040000fa
:0402cc002c030000ff
:020000040000fa
:0402d0002c030000fb
:020000040000fa
:0402d4002c030000f7
:020000040000fa
:0402d8002c030000f3
:020000040000fa
:0402dc002c030000ef
:020000040000fa
:0402e0002c030000eb
:020000040000fa
:0402e4002c030000e7
:020000040000fa
:0402e8002c030000e3
:020000040000fa
:0402ec002c030000df
:020000040000fa
:0402f0002c030000db
:020000040000fa
:0402f4002c030000d7
:020000040000fa
:0402f8002c030000d3
:020000040000fa
:0402fc002c030000cf
:020000040000fa
:040300002c030000ca
:020000040000fa
:040304002c030000c6
:020000040000fa
:040308002c030000c2
:020000040000fa
:04030c002c030000be
:020000040000fa
:040310002c030000ba
:020000040000fa
:040314002c030000b6
:020000040000fa
:040318002c030000b2
:020000040000fa
:04031c002c030000ae
:020000040000fa
:100400002f0221000eff21000e01880000000000d5
:10041000000020000000e000020032000001200087
:1004200020028800140007008d0007000000e00093
:1004300003003a002099200001002000020037004c
:100440000000200001002000810f70000100320038
:100450000f000700000020000000e0000200320052
:100460000000020000000000180802000000000068
:100470000040da000000fe00200020000000e00044
:1004800002003200100020009001880000000600e9
:10049000a1028800800478000000eb001f003700f4
:1004a000e284440054a0b4009905ba00e2844400f8
:1004b00054a0b4009906ba00e284440054a0b400e9
:1004c0000006eb00476fde00fd07b200ae018800ba
:1004d000636ce10003003a000ad801000000eb0061
:1004e0000e003700606ce10008003a00004deb00a0
:1004f0000a05e800020039003420ec000af0a000f0
:100500008b05e900f9ff3e00040037006168e10057
:10051000010032000086eb000b00070019c7ba008b
:100520001905ba000e04e00003003a000a00e000da
:10053000dbff3a0000000600fe07b200ae028800b2
:100540008a047800f5ff37000cd0a300e20f4d00bd
:100550001c00390089027800354dba000a05e80010
:10056000020039003420ec000af0a0008b05e900fd
:100570000f003200254dba000a05e80002003900dc
:100580003420ec000af0a0008b05e90008003200de
:100590000c00e0000600320015cdba000a05e800a4
:1005a000020039003420ec000af0a0008b05e900bd
:1005b0008984e80054a0b4000b00e000e2ff3a0098
:1005c000000006009902ba00055d78008b05e9007d
:1005d000f7ff3200c82ade00055d78008b05e900d0
:1005e000f3ff32000c00e000f1ff320019ddba0029
:1005f000eeff37003600f800c028a9000000eb002d
:100600003d0307003600f8003f030700c048a9007b
:1006100010002000380307003600f800c068a90069
:1006200020002000340307003600f800c088a9002d
:1006300030002000300307003600f800c608a9008b
:10064000700020002c0307003600f800c408a90041
:10065000b0002000280307000040da000000fe0080
:040660000000050091
:020000040000fa
:100664000000fa0000032000001888000223ef00b5
:100674000423ef000623ef000823ef00000120000d
:10068400501888000c23ef000e23ef001023ef0016
:100694001223ef001423ef001623ef001823ef00ba
:1006a4001a23ef001c23ef001e23ef002023ef008a
:1006b4002223ef002423ef002623ef002823ef005a
:1006c4002c23ef006223ef009823ef00ce23ef00ea
:1006d4002e23ef006423ef009a23ef00d023ef00d2
:1006e4003023ef006623ef009c23ef00d223ef00ba
:1006f400800120009019880080012000401b8800a0
:1007040080012000f01c8800c0002000a01e88008a
:100714003423ef006a23ef00a023ef00d623ef0079
:100724003623ef006c23ef00a223ef00d823ef0061
:100734003823ef006e23ef00a423ef00da23ef0049
:100744003a23ef007023ef00a623ef00dc23ef0031
:100754003c23ef007223ef00a823ef00de23ef0019
:100764003e23ef007423ef00aa23ef00e023ef0001
:100774004023ef007623ef00ac23ef00e223ef00e9
:100784004223ef007823ef00ae23ef00e423ef00d1
:100794004423ef007a23ef00b023ef00e623ef00b9
:1007a4004623ef007c23ef00b223ef00e823ef00a1
:1007b4004823ef007e23ef00b423ef00ea23ef0089
:1007c4004a23ef008023ef00b623ef00ec23ef0071
:1007d4004c23ef008223ef00b823ef00ee23ef0059
:1007e400a0102000701a8800a0102000201c88008f
:1007f400a0102000d01d8800a0102000801f8800b9
:100804005023ef008623ef00bc23ef00f223ef0018
:1008140040212000901a880040212000401c8800bc
:1008240040212000f01d880040212000a01f8800e6
:100834005423ef008a23ef00c023ef00f623ef00d8
:100844005623ef008c23ef00c223ef00f823ef00c0
:100854005823ef008e23ef00c423ef00fa23ef00a8
:100864005a23ef009023ef00c623ef00fc23ef0090
:100874005c23ef009223ef00c823ef00fe23ef0078
:10088400800028005019880080002800001b880080
:1008940080002800b01c880080002800601e8800aa
:1008a4000080fa00000006000000fa000080fa0050
:1008b400000006000000fa0040408000680060006c
:1008c4000000e00002003200f7ff07000868a900fa
:1008d4000080fa00000006000000fa000080fa0020
:1008e400000006000000fa00404080007000600034
:1008f4000000e00002003200f7ff07000888a900aa
:100904000080fa00000006000000fa000080fa00ef
:10091400000006000000fa004140800000022000b0
:10092400008060000000e00002003200f6ff0700d3
:1009340008a8a9000080fa00000006000000fa00e0
:100944000080fa00000006000000fa004140800028
:1009540000042000008060000000e000020032007b
:10096400f6ff070008c8a9000080fa00000006008e
:100974000000fa000080fa00000006000000fa00ff
:10098400a140800000202000008060000000e00002
:1009940002003200f6ff07001528a9000080fa00c3
:1009a400000006000000fa000080fa0000000600c3
:1009b4000000fa00a1408000004020000080600098
:1009c4000000e00002003200f6ff07001548a9000d
:1009d4000080fa00000006000000fa000080fa001f
:1009e400000006000000fa00a14080000080200002
:1009f400008060000000e00002003200f6ff070003
:100a04001568a9000080fa00000006000000fa0042
:100a14000080fa00000006000000fa00a1408000f7
:100a240000002100008060000000e00002003200ad
:100a3400f6ff07001588a9000080fa0000000600f0
:100a44000000fa000080fa00000006000000fa002e
:100a5400a140800000002200008060000000e0004f
:100a640002003200f6ff070015a8a9000080fa0072
:100a7400000006000000fa000080fa0000000600f2
:100a84000000fa00a1408000000024000080600003
:100a94000000e00002003200f6ff070015c8a900bc
:100aa4000080fa00000006000000fa00d221ef00e6
:100ab4000080fa00000006000000fa00d321a8001c
:100ac4000080fa00000006000000fa0088a00a0076
:100ad400d40100000080fb0000f0a7000000ea0041
:100ae4000000ea004f00de00004078000080fa00b9
:100af400000006000000fa00d321a9000080fa00db
:100b0400000006000000fa0099a00a00d4010000c9
:100b14000080fb0000f0a7000000ea000000ea00eb
:100b24004f00de00004078000080fa00000006005c
:100b34000000fa00d301a8000080fa0000000600bb
:100b44000000fa00d301a9000080fa0000000600aa
:100b54000200fa0030002000000f7800a10e80008f
:100b640000002800008060000000e0000300320064
:100b740040002000000f780015003700dca00a00b8
:100b8400d40100000080fb00e10f50000700320098
:100b9400e20f5000080032000000e00009003a00b3
:100ba4000000eb00000f780009003700200020004f
:100bb400000f78000600370010002000000f7800b6
:100bc4000300370030002000000f78000000000010
:100bd4001e0078000080fa00000006000600fa00fb
:100be40010079800210798000000eb00000f780020
:100bf4000f003700d10f800000102000008060003b
:100c04000000e0000e003a00f10f80001e0090008a
:100c1400010878001e0090000080e800100798008a
:100c24002e0090000000e900200798001e0fe80045
:100c34002e0090000000e000eeff3a0001003700b3
:100c4400000000001e0078000080fa00000006008a
:100c54000600fa0010079800210798000000eb0036
:100c6400000f78000e003700d00f80006200600093
:100c74000000e0000e003a001e0090001000780012
:100c8400e00f88001e0090000080e8001007980024
:100c94002e0090000000e900200798001e0fe800d5
:100ca4002e0090000000e000efff3a000100370042
:100cb400000000001e0078000080fa00000006001a
:100cc4000400fa00100798000040eb00004f780081
:100cd400190007000004e00012003200d10e800069
:100ce4001e00900001087800e10e80001e009000b4
:100cf40011009800f10e80001e0090002100980061
:100d0400010f80001e00900031009800110f800038
:100d14001e0090004100980010c0b300004f7800fe
:100d2400020037000040eb00004f78001e407800be
:100d34000080fa00000006000000fa0000a00a008b
:100d4400d80100000080fb0000f0a7000000ea00ca
:100d54000000ea004f00de00004078000080fa0046
:100d6400000006000400fa00100798000040eb00a1
:100d7400004f7800190007000004e0001200320060
:100d84001e00900010007800200f88001e009000c4
:100d940010009000300f88001e009000200090008a
:100da400400f88001e00900030009000500f880013
:100db4001e00900040009000600f880010c0b30037
:100dc400004f7800020037000040eb00004f78002d
:100dd4001e4078000080fa00000006000000fa00bf
:100de400c00e80006200600000f0a7000000ea006e
:100df4000000e9004f00de00004078000080fa00a7
:100e0400000006000000fa00007c80000080fa0068
:100e1400000006000200fa00faff0700000f780045
:100e24001e007800240007000004e00002003200e5
:100e340000002800710007001e0078002a00070047
:100e44000004e00002003200000024006b000700f0
:100e54001e007800320007000004e00002003200a7
:100e640000202000650007001e0078003a000700fb
:100e74000004e00002003200000820005f000700c8
:100e84001e007800420007000004e0000200320067
:100e940000042000590007001e0078004a000700e3
:100ea4000004e000020032000001200053000700ab
:100eb4000080fa00000006000400fa001007980001
:100ec4000040eb00004f78001e0090000000e0009e
:100ed40002003d0010c0b300004f78001e407800af
:100ee4000080fa00000006000400fa0010079800d1
:100ef4000040eb00004f78009e00900000002400aa
:100f0400008060000000e0000200320010c0b30066
:100f1400004f78001e4078000080fa0000000600b0
:100f24000400fa00100798000040eb00004f78001e
:100f34009e00900000202000008060000000e0007f
:100f44000200320010c0b300004f78001e40780049
:100f54000080fa00000006000400fa001007980060
:100f64000040eb00004f78009e0090000008200035
:100f7400008060000000e0000200320010c0b300f6
:100f8400004f78001e4078000080fa000000060040
:100f94000400fa00100798000040eb00004f7800ae
:100fa4009e00900000042000008060000000e0002b
:100fb4000200320010c0b300004f78001e407800d9
:100fc4000080fa00000006000400fa0010079800f0
:100fd4000040eb00004f78001e009000700060009d
:100fe4000000e0000200320010c0b300004f78009f
:100ff4001e4078000080fa00000006000200fa009b
:10100400000f78009e80ea00007c80000080600071
:10101400007c88000080fa00000006000000fa004e
:10102400802fef000080fa00000006001600fa008e
:10103400870007000000eb00100798000000eb0099
:101044006007980000000000aefe07000004a20044
:101054000004e000fcff3a00b5fe070000000000b9
:10106400a8fe07000004e000fdff3a00b4fe0700fc
:101074000e80e80012ff07001e0090006007980031
:101084006c00470037ff07008bfe070000000000dc
:101094008dfe07000004a2000004e000fcff3a00fb
:1010a40094fe07000000000087fe07000004e00033
:1010b400fdff3a009e009000a0aa2a00808f5000f5
:1010c40002003a00228ea80001003700228ea900f7
:1010d4000000eb00000f7800060037009e00780047
:1010e400711a880000a82100610020007300070025
:1010f4001e0fe800e00f20009e007800808f500053
:10110400f6ff3600f2ff37000000fa00100023005b
:10111400307c880060092000407c88001004200096
:10112400507c880010102000707c8800600920002a
:10113400807c880010042000907c8800b82fef0089
:10114400ba2fef00002def00a42fef00a62fef0021
:10115400aa2fef00ae2fef00b02fef00b22fef0059
:101164007200200080072000a109200053f820000d
:101174008049780081497800824978000001eb00b9
:10118400600420007105200043f8200080497800a5
:1011940081497800824978000080fa000000060046
:1011a4000000fa00062eef00222eef00f0012000ce
:1011b40010708800f0ae2a00f07088000c2eef004a
:1011c400282eef000a2eef00262eef00082eef0047
:1011d400242eef00e001200000708800f0192000a8
:1011e400e070880050052000b0468800a00a200066
:1011f400b0468800016da90050052000b046880063
:10120400a00a2000b0468800016da8000080fa0002
:10121400000006000200fa00000f7800210280009e
:10122400200f2000008060001e0070002002880053
:101234000080fa00000006000000fa00c3e8a800dd
:1012440000000000000000000080fa00000006001a
:101254000000fa00d2ff070039000700aaff0700c8
:1012640011fe0700fefc0700f3ff07000002200048
:10127400e8ff07000080fa00000006000000fa0002
:10128400a1ff07000080fa00000006000000fa0039
:10129400007c80000080fa00000006000000fa00d4
:1012a400dcfe07000080fa00000006000000fa00df
:0c12b4005aff07000080fa00000006004e
:020000040000fa
:1012c000f03fb1000180b10006003500ee030900d7
:1012d00000000000403fb1000180b100fbff3d0075
:1012e0001000b000203fb00002003500008009006f
:0812f0000000000000000600f0
:020000040000fa
:1012f800000f78009e00780001818800ffff37000a
:101308000000fa0000002100800778008001210019
:0c131800000188000080fa0000000600c0
:020000040000fa
:10132400201000000200000082000000ffff000007
:1013340000100000200000008000000000000000f9
:020000040000fa
:0c1344000000fa000080fa000000060023
:00000001FF
