:020000040000fa
:080000000002040000000000f2
:020000040000fa
:0400080050030000a1
:020000040000fa
:04000c00620300008b
:020000040000fa
:040010007203000077
:020000040000fa
:04001400580300008d
:020000040000fa
:040018006a03000077
:020000040000fa
:04001c00820300005b
:020000040000fa
:040020007a0300005f
:020000040000fa
:040024008203000053
:020000040000fa
:04002800820300004f
:020000040000fa
:04002c00820300004b
:020000040000fa
:040030008203000047
:020000040000fa
:040034008203000043
:020000040000fa
:04003800820300003f
:020000040000fa
:04003c00820300003b
:020000040000fa
:040040008203000037
:020000040000fa
:040044008203000033
:020000040000fa
:04004800820300002f
:020000040000fa
:04004c00820300002b
:020000040000fa
:040050008203000027
:020000040000fa
:040054008203000023
:020000040000fa
:04005800820300001f
:020000040000fa
:04005c00820300001b
:020000040000fa
:040060008203000017
:020000040000fa
:040064008203000013
:020000040000fa
:04006800820300000f
:020000040000fa
:04006c00820300000b
:020000040000fa
:040070008203000007
:020000040000fa
:040074008203000003
:020000040000fa
:0400780082030000ff
:020000040000fa
:04007c0082030000fb
:020000040000fa
:0400800082030000f7
:020000040000fa
:0400840082030000f3
:020000040000fa
:0400880082030000ef
:020000040000fa
:04008c0082030000eb
:020000040000fa
:0400900082030000e7
:020000040000fa
:0400940082030000e3
:020000040000fa
:0400980082030000df
:020000040000fa
:04009c0082030000db
:020000040000fa
:0400a00082030000d7
:020000040000fa
:0400a40082030000d3
:020000040000fa
:0400a80082030000cf
:020000040000fa
:0400ac0082030000cb
:020000040000fa
:0400b00082030000c7
:020000040000fa
:0400b40082030000c3
:020000040000fa
:0400b80082030000bf
:020000040000fa
:0400bc0082030000bb
:020000040000fa
:0400c00082030000b7
:020000040000fa
:0400c40082030000b3
:020000040000fa
:0400c80082030000af
:020000040000fa
:0400cc0082030000ab
:020000040000fa
:0400d00082030000a7
:020000040000fa
:0400d40082030000a3
:020000040000fa
:0400d800820300009f
:020000040000fa
:0400dc00820300009b
:020000040000fa
:0400e0008203000097
:020000040000fa
:0400e4008203000093
:020000040000fa
:0400e800820300008f
:020000040000fa
:0400ec00820300008b
:020000040000fa
:0400f0008203000087
:020000040000fa
:0400f4008203000083
:020000040000fa
:0400f800820300007f
:020000040000fa
:0400fc00820300007b
:020000040000fa
:040100008203000076
:020000040000fa
:040104008203000072
:020000040000fa
:04010800820300006e
:020000040000fa
:04010c00820300006a
:020000040000fa
:040110008203000066
:020000040000fa
:040114008203000062
:020000040000fa
:04011800820300005e
:020000040000fa
:04011c00820300005a
:020000040000fa
:040120008203000056
:020000040000fa
:040124008203000052
:020000040000fa
:04012800820300004e
:020000040000fa
:04012c00820300004a
:020000040000fa
:040130008203000046
:020000040000fa
:040134008203000042
:020000040000fa
:04013800820300003e
:020000040000fa
:04013c00820300003a
:020000040000fa
:040140008203000036
:020000040000fa
:040144008203000032
:020000040000fa
:04014800820300002e
:020000040000fa
:04014c00820300002a
:020000040000fa
:040150008203000026
:020000040000fa
:040154008203000022
:020000040000fa
:04015800820300001e
:020000040000fa
:04015c00820300001a
:020000040000fa
:040160008203000016
:020000040000fa
:040164008203000012
:020000040000fa
:04016800820300000e
:020000040000fa
:04016c00820300000a
:020000040000fa
:040170008203000006
:020000040000fa
:040174008203000002
:020000040000fa
:0401780082030000fe
:020000040000fa
:04017c0082030000fa
:020000040000fa
:0401800082030000f6
:020000040000fa
:0401840082030000f2
:020000040000fa
:0401880082030000ee
:020000040000fa
:04018c0082030000ea
:020000040000fa
:0401900082030000e6
:020000040000fa
:0401940082030000e2
:020000040000fa
:0401980082030000de
:020000040000fa
:04019c0082030000da
:020000040000fa
:0401a00082030000d6
:020000040000fa
:0401a40082030000d2
:020000040000fa
:0401a80082030000ce
:020000040000fa
:0401ac0082030000ca
:020000040000fa
:0401b00082030000c6
:020000040000fa
:0401b40082030000c2
:020000040000fa
:0401b80082030000be
:020000040000fa
:0401bc0082030000ba
:020000040000fa
:0401c00082030000b6
:020000040000fa
:0401c40082030000b2
:020000040000fa
:0401c80082030000ae
:020000040000fa
:0401cc0082030000aa
:020000040000fa
:0401d00082030000a6
:020000040000fa
:0401d40082030000a2
:020000040000fa
:0401d800820300009e
:020000040000fa
:0401dc00820300009a
:020000040000fa
:0401e0008203000096
:020000040000fa
:0401e4008203000092
:020000040000fa
:0401e800820300008e
:020000040000fa
:0401ec00820300008a
:020000040000fa
:0401f0008203000086
:020000040000fa
:0401f4008203000082
:020000040000fa
:0401f800820300007e
:020000040000fa
:0401fc00820300007a
:020000040000fa
:040200008203000075
:020000040000fa
:040204008203000071
:020000040000fa
:04020800820300006d
:020000040000fa
:04020c008203000069
:020000040000fa
:040210008203000065
:020000040000fa
:040214008203000061
:020000040000fa
:04021800820300005d
:020000040000fa
:04021c008203000059
:020000040000fa
:040220008203000055
:020000040000fa
:040224008203000051
:020000040000fa
:04022800820300004d
:020000040000fa
:04022c008203000049
:020000040000fa
:040230008203000045
:020000040000fa
:040234008203000041
:020000040000fa
:04023800820300003d
:020000040000fa
:04023c008203000039
:020000040000fa
:040240008203000035
:020000040000fa
:040244008203000031
:020000040000fa
:04024800820300002d
:020000040000fa
:04024c008203000029
:020000040000fa
:040250008203000025
:020000040000fa
:040254008203000021
:020000040000fa
:04025800820300001d
:020000040000fa
:04025c008203000019
:020000040000fa
:040260008203000015
:020000040000fa
:040264008203000011
:020000040000fa
:04026800820300000d
:020000040000fa
:04026c008203000009
:020000040000fa
:040270008203000005
:020000040000fa
:040274008203000001
:020000040000fa
:0402780082030000fd
:020000040000fa
:04027c0082030000f9
:020000040000fa
:0402800082030000f5
:020000040000fa
:0402840082030000f1
:020000040000fa
:0402880082030000ed
:020000040000fa
:04028c0082030000e9
:020000040000fa
:0402900082030000e5
:020000040000fa
:0402940082030000e1
:020000040000fa
:0402980082030000dd
:020000040000fa
:04029c0082030000d9
:020000040000fa
:0402a00082030000d5
:020000040000fa
:0402a40082030000d1
:020000040000fa
:0402a80082030000cd
:020000040000fa
:0402ac0082030000c9
:020000040000fa
:0402b00082030000c5
:020000040000fa
:0402b40082030000c1
:020000040000fa
:0402b80082030000bd
:020000040000fa
:0402bc0082030000b9
:020000040000fa
:0402c00082030000b5
:020000040000fa
:0402c40082030000b1
:020000040000fa
:0402c80082030000ad
:020000040000fa
:0402cc0082030000a9
:020000040000fa
:0402d00082030000a5
:020000040000fa
:0402d40082030000a1
:020000040000fa
:0402d800820300009d
:020000040000fa
:0402dc008203000099
:020000040000fa
:0402e0008203000095
:020000040000fa
:0402e4008203000091
:020000040000fa
:0402e800820300008d
:020000040000fa
:0402ec008203000089
:020000040000fa
:0402f0008203000085
:020000040000fa
:0402f4008203000081
:020000040000fa
:0402f800820300007d
:020000040000fa
:0402fc008203000079
:020000040000fa
:040300008203000074
:020000040000fa
:040304008203000070
:020000040000fa
:04030800820300006c
:020000040000fa
:04030c008203000068
:020000040000fa
:040310008203000064
:020000040000fa
:040314008203000060
:020000040000fa
:04031800820300005c
:020000040000fa
:04031c008203000058
:020000040000fa
:040320008203000054
:020000040000fa
:100400002f0221000eff24000e01880000002000b2
:100410000000e000020032000001200020028800fd
:1004200014000700cd0007000000e00003003a00c0
:10043000602421000100200002003700000020009d
:1004400001002000810f70004220ae000f00070065
:10045000000020000000e0004220ae00000002008a
:100460000000000038110200000000000040da0027
:100470000000fe00200020000000e000020032002a
:10048000100020009001880000000600a1028800f2
:10049000800478000000eb001f003700e284440075
:1004a00054a0b4009905ba00e284440054a0b400fa
:1004b0009906ba00e284440054a0b4000006eb00a0
:1004c000476fde00fd07b200ae018800636ce100fb
:1004d00003003a000ad801000000eb000e003700cc
:1004e000606ce10008003a00004deb000a05e800ee
:1004f000020039003420ec000af0a0008b05e9006e
:10050000f9ff3e00040037006168e100010032009d
:100510000086eb000b00070019c7ba001905ba00e6
:100520000e04e00003003a000a00e000dbff3a009e
:1005300000000600fe07b200ae0288008a047800c0
:10054000f5ff37000cd0a300e20f4d001c0039006e
:1005500089027800354dba000a05e800020039002a
:100560003420ec000af0a0008b05e9000f003200f7
:10057000254dba000a05e800020039003420ec00dd
:100580000af0a0008b05e900080032000c00e00032
:100590000600320015cdba000a05e8000200390055
:1005a0003420ec000af0a0008b05e9008984e80003
:1005b00054a0b4000b00e000e2ff3a000000060087
:1005c0009902ba00055d78008b05e900f7ff32005b
:1005d000c82ade00055d78008b05e900f3ff3200d4
:1005e0000c00e000f1ff320019ddba00eeff370029
:1005f0006100e10001003200100005003200f80047
:100600003400f8000002be00930188003200be00f2
:100610000100e0000700320032037800c733de003b
:10062000a7018800f607b2007f30e1000400320025
:10063000200020003400f9003200f900000006001c
:100640008100e9000500e00003003a000180090094
:1006500032100300edff37000180090032900300e3
:10066000d561ae00e9ff370030002000f1ff370010
:1006700050052000b00e8800a00a2000b00e8800af
:10068000d3e1a8000000060050052000b00e88004d
:10069000a00a2000b00e8800d3e1a90000000600e7
:1006a0003600f800c028a9000000eb006c07070026
:1006b0003600f8006e070700c048a90010002000af
:1006c000670707003600f800c068a9002000200076
:1006d000630707003600f800c088a900300020003a
:1006e0005f0707003600f800c608a9007000200068
:1006f0005b0707003600f800c408a900b00020001e
:10070000570707000040da000000fe000800fa006a
:10071000100798002107980032079800be0090004b
:10072000010f7800070037002e009000104078007d
:10073000ae0090008100e800210798004d060700f8
:100740001e0fe9001e0078000000e000f6ff3a00ee
:100750003e0090000080fa00000006000000050046
:100760006022b800060220000000d0008180d20084
:100770000482d2008582d2000000a0000202520052
:1007800083825a00030031000202420083824a0041
:100790000000a1000603e900f3ff3a000000060094
:020000040000fa
:1007a00000000000ca0000001f000000000204005a
:1007b00000000000fa0200000c0300001c0300000f
:1007c00002030000140300002c03000024030000b7
:1007d0002c0300002c0300002c0300002c0300005d
:1007e0002c0300002c0300002c0300002c0300004d
:1007f0002c0300002c0300002c0300002c0300003d
:100800002c0300002c0300002c0300002c0300002c
:100ac0002c0300002c0300002c0300000000fe009b
:100ad0000000fe0000020000000200001f000000f5
:100ae0002f0221000eff21000e01880000000000ef
:100af000000020000000e0000200320000012000a1
:100b000020028800140007008d0007000000e000ac
:100b100003003a002072200001002000020037008c
:100b20000000200001002000810f70000100320051
:100b30000f000700000020000000e000020032006b
:100b40000000020000000000f405020000000000a8
:100b50000040da000000fe00200020000000e0005d
:100b60000200320010002000900188000000060002
:100b7000a1028800800478000000eb001f0037000d
:100b8000e284440054a0b4009905ba00e284440011
:100b900054a0b4009906ba00e284440054a0b40002
:100ba0000006eb00476fde00fd07b200ae018800d3
:100bb000636ce10003003a000ad801000000eb007a
:100bc0000e003700606ce10008003a00004deb00b9
:100bd0000a05e800020039003420ec000af0a00009
:100be0008b05e900f9ff3e00040037006168e10071
:100bf000010032000086eb000b00070019c7ba00a5
:100c00001905ba000e04e00003003a000a00e000f3
:100c1000dbff3a0000000600fe07b200ae028800cb
:100c20008a047800f5ff37000cd0a300e20f4d00d6
:100c30001c00390089027800354dba000a05e80029
:100c4000020039003420ec000af0a0008b05e90016
:100c50000f003200254dba000a05e80002003900f5
:100c60003420ec000af0a0008b05e90008003200f7
:100c70000c00e0000600320015cdba000a05e800bd
:100c8000020039003420ec000af0a0008b05e900d6
:100c90008984e80054a0b4000b00e000e2ff3a00b1
:100ca000000006009902ba00055d78008b05e90096
:100cb000f7ff3200c82ade00055d78008b05e900e9
:100cc000f3ff32000c00e000f1ff320019ddba0042
:100cd000eeff37003600f800c028a9000000eb0046
:100ce000050207003600f80007020700c048a90007
:100cf00010002000000207003600f800c068a900bc
:100d000020002000fc0107003600f800c088a90080
:100d100030002000f80107003600f800c608a900de
:100d200070002000f40107003600f800c408a90094
:100d3000b0002000f00107000040da000000fe00d3
:100d4000000005000000fa00d221ef000080fa0048
:100d5000000006000000fa00d321a8000080fa007d
:100d6000000006000000fa0088a00a00d40100007c
:100d70000080fb0000f0a7000000ea000000ea008d
:100d80004f00de00004078000080fa0000000600fe
:100d90000000fa00d321a9000080fa00000006003c
:100da0000000fa0099a00a00d40100000080fb00b6
:100db00000f0a7000000ea000000ea004f00de009b
:100dc000004078000080fa00000006000000fa00f1
:100dd000d301a8000080fa00000006000000fa001d
:100de000d301a9000080fa00000006000200fa000a
:100df00030002000000f7800a10e800000002800c5
:100e0000008060000000e00003003200400020008d
:100e1000000f780015003700dca00a00d4010000a4
:100e20000080fb00e10f500007003200e20f50008d
:100e3000080032000000e00009003a000000eb006a
:100e4000000f78000900370020002000000f780014
:100e50000600370010002000000f78000300370064
:100e600030002000000f7800000000001e00780015
:100e70000080fa00000006000600fa001007980043
:100e8000210798000000eb00000f78000f003700ea
:100e9000d10f800000102000008060000000e00002
:100ea0000e003a00f10f80001e009000010878004b
:100eb0001e0090000080e800100798002e009000af
:100ec0000000e900200798001e0fe8002e009000a7
:100ed0000000e000eeff3a000100370000000000d3
:100ee0001e0078000080fa00000006000600fa00ec
:100ef00010079800210798000000eb00000f780011
:100f00000e003700d00f8000620060000000e0009b
:100f10000e003a001e00900010007800e00f8800dc
:100f20001e0090000080e800100798002e0090003e
:100f30000000e900200798001e0fe8002e00900036
:100f40000000e000efff3a00010037000000000061
:100f50001e0078000080fa00000006000400fa007d
:100f6000100798000040eb00004f780019000700c0
:100f70000004e00012003200d10e80001e0090003c
:100f800001087800e10e80001e009000110098001a
:100f9000f10e80001e00900021009800010f8000db
:100fa0001e00900031009800110f80001e0090007c
:100fb0004100980010c0b300004f780002003700d5
:100fc0000040eb00004f78001e4078000080fa00df
:100fd000000006000000fa0000a00a00d80100008e
:100fe0000080fb0000f0a7000000ea000000ea001b
:100ff0004f00de00004078000080fa00000006008c
:101000000400fa00100798000040eb00004f780041
:10101000190007000004e000120032001e009000da
:1010200010007800200f88001e0090001000900033
:10103000300f88001e00900020009000400f8800b4
:101040001e00900030009000500f88001e0090009d
:1010500040009000600f880010c0b300004f78007f
:10106000020037000040eb00004f78001e4078007f
:101070000080fa00000006000000fa00c00e8000a8
:101080006200600000f0a7000000ea000000e90034
:101090004f00de00004078000080fa0000000600eb
:1010a0000000fa00007c80000080fa0000000600ca
:1010b0000200fa00faff0700000f78001e00780017
:1010c000240007000004e0000200320000002800b5
:1010d000710007001e0078002a0007000004e000ed
:1010e00002003200000024006b0007001e007800a0
:1010f000320007000004e00002003200002020005f
:10110000650007001e0078003a0007000004e000b8
:1011100002003200000820005f0007001e00780077
:10112000420007000004e00002003200000420003a
:10113000590007001e0078004a0007000004e00084
:101140000200320000012000530007000080fa0076
:10115000000006000400fa00100798000040eb00b1
:10116000004f78001e0090000000e00002003d00eb
:1011700010c0b300004f78001e4078000080fa00d5
:10118000000006000400fa00100798000040eb0081
:10119000004f78009e009000000024000080600056
:1011a0000000e0000200320010c0b300004f7800e1
:1011b0001e4078000080fa00000006000400fa00db
:1011c000100798000040eb00004f78009e00900050
:1011d00000202000008060000000e00002003200db
:1011e00010c0b300004f78001e4078000080fa0065
:1011f000000006000400fa00100798000040eb0011
:10120000004f78009e0090000008200000806000e1
:101210000000e0000200320010c0b300004f780070
:101220001e4078000080fa00000006000400fa006a
:10123000100798000040eb00004f78009e009000df
:1012400000042000008060000000e0000200320086
:1012500010c0b300004f78001e4078000080fa00f4
:10126000000006000400fa00100798000040eb00a0
:10127000004f78001e009000700060000000e00049
:101280000200320010c0b300004f78001e4078000a
:101290000080fa00000006000200fa00000f78004b
:1012a0009e80ea00007c800000806000007c880056
:1012b0000080fa00000006000000fa00802fef0016
:1012c0000080fa00000006001400fa005d0007002c
:1012d0000000eb00000f78000000eb0050079800c2
:1012e000000600009e0000001f000000000000003b
:1012f000aefe07000004a2000004e000fcff3a007c
:10130000b5fe070000000000a8fe07000004e00092
:10131000fdff3a00b4fe07000e00780012ff070040
:101320001e007800500798006a00470037ff07004a
:101330008bfe0700000000008dfe07000004a200e5
:101340000004e000fcff3a0094fe070000000000eb
:1013500087fe07000004e000fdff3a009e007800d1
:10136000a0aa2a00808f500002003a00228ea80016
:1013700001003700228ea900ffff37000000fa00ad
:1013800010002300307c880060092000407c880029
:1013900010042000507c880010102000707c880011
:1013a00060092000807c880010042000907c880068
:1013b000b82fef00ba2fef00002def00a42fef00a1
:1013c000a62fef00aa2fef00ae2fef00b02fef00f7
:1013d000b22fef007200200080072000a10920003a
:1013e00053f82000804978008149780082497800cc
:1013f0000001eb00600420007105200043f820008c
:101400008049780081497800824978000080fa009c
:10141000000006000200fa00000f780021028000a0
:10142000200f2000008060001e0070002002880055
:101430000080fa00000006000000fa00c3e8a800df
:1014400000000000000000000080fa00000006001c
:101450000000fa00080007003d000700c7ff070072
:101460003bfe0700f4ff070000022000e9ff070031
:101470000080fa00000006000000fa00062eef00cf
:10148000222eef00f001200010708800f0fe2f00e7
:10149000f07088000c2eef00282eef000a2eef00cf
:1014a000262eef00082eef00242eef00e001200092
:1014b00000708800f0192000e07088000080fa00b9
:1014c000000006000000fa00acff07000080fa00f0
:1014d000000006000000fa00007c80000080fa0096
:1014e000000006000000fa00f4fe07000080fa0089
:1014f000000006000000fa0072ff07000080fa00fa
:1015000000000600000f78009e007800018188002e
:10151000ffff37000000fa0000002100800778007c
:1015200080012100000188000080fa000000060010
:10153000201000000200000082000000ffff0000f9
:1015400000100000200000008000000000000000eb
:101550000000fa000080fa00000006000000fe0013
:0c1560000000fe00000000000000000081
:020000040000fa
:10156c000000fa00d221ef0000082800d00f8800fc
:10157c000080fa00000006000000fa0039fc0700a9
:10158c000080fa00000006000000fa00003d280070
:10159c00012020000001be008000eb0010002000a4
:1015ac0010fc07000080fa00000006000000fa00a2
:1015bc00d321a8000080fa00000006000000fa0009
:1015cc0088a00a00d40100000080fb0000f0a700f6
:1015dc000000ea000000ea004f00de000040780046
:1015ec000080fa00000006000000fa00d321a900d8
:1015fc000080fa00000006000000fa0099a00a0022
:10160c00d40100000080fb0000f0a7000000ea00fd
:10161c000000ea004f00de00004078000080fa0075
:10162c00000006000000fa00d301a8000080fa00b8
:10163c00000006000000fa00d301a9000080fa00a7
:10164c00000006000200fa00a10e80000000240039
:10165c00008060000000e000030032000000eb009e
:10166c00000f78000200370010002000000f7800f7
:10167c001e0078000080fa00000006000200fa004c
:10168c00000f78001e0078000000e00003003a0014
:10169c00d5c1a900000000000100370000000000c7
:1016ac000080fa00000006000200fa004000200052
:1016bc00000f7800a10e8000000024000080600064
:1016cc000000e0000300320050002000000f780002
:1016dc0015003700dca00a00d40100000080fb00dc
:1016ec00e10f500007003200e20f500008003200fa
:1016fc000000e00009003a000000eb00000f780049
:10170c000900370030002000000f78000600370079
:10171c0020002000000f780003003700400020005c
:10172c00000f7800000000001e0078000080fa0016
:10173c00000006000600fa00100798002107980028
:10174c000000eb00000f78000e003700d00f800077
:10175c00610060000000e0000e003a00e10f800024
:10176c001e009000010878001e0090000080e80028
:10177c00100798002e0090000000e9002007980048
:10178c001e0fe8002e0090000000e000efff3a0072
:10179c0001003700000000001e0078000080fa00f5
:1017ac00000006000600fa001007980021079800b8
:1017bc000000eb00000f78000f003700d10f800005
:1017cc0000202000008060000000e0000e003a00c5
:1017dc001e00900010007800f00f88001e00900092
:1017ec000080e800100798002e0090000000e9002f
:1017fc00200798001e0fe8002e0090000000e0006b
:10180c00eeff3a0001003700000000001e007800d7
:10181c000080fa00000006000400fa00100798008f
:10182c000040eb00004f7800190007000004e000b6
:10183c00120032001e00900010007800d00e8800bc
:10184c001e00900010009000e00e88001e0090001a
:10185c0020009000f00e88001e00900030009000d8
:10186c00000f88001e00900040009000100f8800b0
:10187c0010c0b300004f7800020037000040eb00ae
:10188c00004f78001e4078000080fa00000006002f
:10189c000000fa00c00e80006100600000f0a7009c
:1018ac000000ea000000e9004f00de000040780074
:1018bc000080fa00000006000400fa0010079800ef
:1018cc000040eb00004f7800190007000004e00016
:1018dc0012003200210f80001e00900001087800d9
:1018ec00310f80001e00900011009800410f800005
:1018fc001e00900021009800510f80001e009000e7
:10190c0031009800610f80001e009000410098008b
:10191c0010c0b300004f7800020037000040eb000d
:10192c00004f78001e4078000080fa00000006008e
:10193c000000fa0011a00a00d80100000080fb0092
:10194c0000f0a7000000ea000000ea004f00de00f3
:10195c00004078000080fa00000006000400fa0045
:10196c00100798001e0090000000e0000b003a00e9
:10197c001e00900010000700d1cc2c000100b80014
:10198c004308de00004f780040c6b3009e4078004c
:10199c0080cf500003003e000400370000c0eb0075
:1019ac000300370040c6b300004f78001e4078009b
:1019bc000080fa00000006000200fa00000f780018
:1019cc001e007800030007004200de000080fa00d1
:1019dc00000006000600fa00200798002e00900078
:1019ec000000400080007800c0c02000008f400044
:1019fc004158800000e02f00808060002e00900095
:101a0c000100700040588800090ba8002e009000bf
:101a1c00ef0f50000b003e002e0090001100200034
:101a2c000008dd00100798000000000081598000bc
:101a3c001e009000008060000000e000fbff320000
:101a4c000b0037002e009000700050001100200099
:101a5c000008dd001007980000000000915980007c
:101a6c001e009000008060000000e000fbff3200d0
:101a7c001e007800100078000080fa0000000600bc
:101a8c000a00fa0030079800410798006000b8007f
:101a9c00008fbe000000eb00200798000800370004
:101aac003e009000cbff07008000eb001e0f4000b3
:101abc005e9748002e0090000000e8002007980078
:101acc00ae0090004e009000808f5000f4ff390063
:101adc002e0090000000e0000c0032002e00900060
:101aec000000d1008000eb003e024000ae824800b6
:101afc002e0090008000eb000001be000400be0030
:101b0c0014fb070000007800010037000000eb0018
:101b1c000080fa00000006000200fa00000f7800b6
:101b2c001e0078000000e00003003a00000ea80040
:101b3c0010c0b300010037000040eb000080fa0039
:101b4c00000006000200fa00000f78001e0078006a
:101b5c000000e00016003a00002bef000006200009
:101b6c0010588800042bef00000320003058880028
:101b7c00082bef00000820005058880000082000b7
:101b8c000060880000f020001060880001eba800c5
:101b9c000000000001608000000028000080600050
:101bac000000e000fbff320010c0b3000100370062
:101bbc000040eb000080fa00000006000000fa0074
:101bcc00007c80000080fa00000006000200fa0091
:101bdc00faff0700000f78001e00780024000700b1
:101bec000004e00002003200000028007100070031
:101bfc001e0078002a0007000004e00002003200fa
:101c0c00000024006b0007001e0078003200070063
:101c1c000004e000020032000020200065000700f4
:101c2c001e0078003a0007000004e00002003200b9
:101c3c00000820005f0007001e007800420007002b
:101c4c000004e000020032000004200059000700ec
:101c5c001e0078004a0007000004e0000200320079
:101c6c0000012000530007000080fa00000006006d
:101c7c000400fa00100798000040eb00004f7800b9
:101c8c001e0090000000e00002003d0010c0b300f8
:101c9c00004f78001e4078000080fa00000006001b
:101cac000400fa00100798000040eb00004f780089
:101cbc009e00900000002400008060000000e00006
:101ccc000200320010c0b300004f78001e407800b4
:101cdc000080fa00000006000400fa0010079800cb
:101cec000040eb00004f78009e0090000020200088
:101cfc00008060000000e0000200320010c0b30061
:101d0c00004f78001e4078000080fa0000000600aa
:101d1c000400fa00100798000040eb00004f780018
:101d2c009e00900000082000008060000000e00091
:101d3c000200320010c0b300004f78001e40780043
:101d4c000080fa00000006000400fa00100798005a
:101d5c000040eb00004f78009e0090000004200033
:101d6c00008060000000e0000200320010c0b300f0
:101d7c00004f78001e4078000080fa00000006003a
:101d8c000400fa00100798000040eb00004f7800a8
:101d9c001e009000700060000000e00002003200a5
:101dac0010c0b300004f78001e4078000080fa008d
:101dbc00000006000200fa00000f78009e80ea0086
:101dcc00007c800000806000007c88000080fa00ad
:101ddc00000006000000fa00802fef000080fa00df
:101dec00000006000000fa0021000700000420009b
:101dfc00006488005005200020648800a0082000a2
:101e0c00306488008a2cef00002020004064880099
:101e1c000080200090648800902cef00942cef0040
:101e2c008c2cef008e2cef000d0007000080fa00c8
:101e3c00000006000000fa0077a00a00880c0000e1
:101e4c000080fb0000f0a7000000ea000000ea00a0
:101e5c004f00de00004078000080fa000000060011
:101e6c000000fa0081eca8000080fa0000000600d7
:101e7c000000fa0081eca9000080fa0000000600c6
:101e8c000200fa00000f78001e0078000040780075
:101e9c00674060000000780053200a00880c0000a6
:101eac000080fa00000006000200fa00000f780023
:101ebc009e007800716488000080fa000000060023
:101ecc000200fa00000f78009e0078006164880020
:101edc000080fa00000006000000fa00892ca8001f
:101eec000080fa00000006000000fa00892ca9000e
:101efc000080fa00000006000200fa00000f7800d3
:101f0c001e007800004078006f40600000007800f0
:101f1c0030200a00900c00000080fa00000006003f
:101f2c000200fa00000f78001e00780000407800d4
:101f3c006f40600000007800b8200a00900c000090
:101f4c000080fa00000006000200fa00000f780082
:101f5c001e007800004078006f40600000007800a0
:101f6c0074200a00900c00000080fa0000000600ab
:101f7c000200fa00000f78001e0078000040780084
:101f8c006f40600000007800fc200a00900c0000fc
:101f9c000080fa00000006000000fa000080fa0041
:101fac00000006000000fa00414080000000220002
:101fbc00008060000000e00002003200f6ff070025
:101fcc0009a8a9000080fa00000006000000fa0031
:101fdc0000082000c01188003a22ef003c22ef00dc
:101fec0020022000f01188003049200000128800e7
:101ffc004222ef004c22ef004e22ef005022ef0065
:10200c005222ef005422ef005622ef005822ef002c
:10201c005a22ef005c22ef0039e2a80038a2a80097
:10202c003882a8000080fa00000006000000fa00c8
:10203c0000000000f0118000620060000000e00071
:10204c00fcff3a00e0118000620060000000e0003c
:10205c00010032003c22a9002012800000407800d0
:10206c000080fa00000006000200fa00004f780021
:10207c0000000000f0118000700060000000e00023
:10208c00fcff3a001e80fb00401288000080fa0022
:10209c00000006000000fa0011a00a003e02000039
:1020ac000080fb0000f0a7000000ea000000ea003e
:1020bc004f00de00004078000080fa0000000600af
:1020cc000000fa00e1118000000820000080600090
:1020dc000000e00007003200c11180000002200067
:1020ec00008060000000e0000200320010002000c0
:1020fc00010037000000eb00004078000080fa007f
:10210c00000006000000fa0077a00a003c02000064
:10211c000080fb0000f0a7000000ea000000ea00cd
:10212c004f00de00004078000080fa00000006003e
:10213c000400fa00f01180008000eb00008fbe005c
:10214c001e00be00c001dd0002002000e011800076
:10215c008000eb0000007100818071000080fa00ab
:10216c00000006000000fa0039e2a80038a2a8001e
:10217c003882a8000080fa00000006000000fa0077
:10218c0039e2a90038a2a9003882a9000080fa001f
:10219c00000006000000fa0010002300307c8800cc
:1021ac00a0052000407c88008c2fef00102220001e
:1021bc00507c880010102000707c88006009200082
:1021cc00807c880010042000907c88009a2fef00ff
:1021dc00b82fef00ba2fef00002def00a42fef0067
:1021ec00a62fef00a82fef00aa2fef00ae2fef00c5
:1021fc00b02fef00b22fef0012002000800720005c
:10220c00a109200053f8200080497800814978000a
:10221c008249780012002000600420007105200023
:10222c0043f8200080497800814978008249780081
:10223c0000000000207c8000610060000000e000d5
:10224c00fcff3a0000000000217c8000000220000e
:10225c00008060000000e000fbff32000080fa000c
:10226c00000006001400fa005e000700c6fc070020
:10227c00c1fc0700a0aa2a00000f78000000eb00a8
:10228c00500798000e00780063fd0700c7fc07009c
:10229c0000000000c9fc07000004a2000004e000dc
:1022ac00fcff3a00d0fc070000000000c3fc070054
:1022bc000004e000fdff3a0000000000cefc070027
:1022cc000004a2000004e000fcff3a00d5fc07006b
:1022dc0000000000c8fc07000004e000fdff3a000d
:1022ec00d4fc07006a00470073fd0700de00900075
:1022fc00a0aa2a00808f500002003a0022eea8000b
:10230c000100370022eea900d5fe0700f2fe0700ff
:10231c0080bb2000eafe07000000eb00e2fe070095
:10232c00ffff37000000fa00062eef0080002000af
:10233c0010718800f00120001070880030f62d001c
:10234c00f07088000c2eef00282eef000a2eef0004
:10235c00262eef00082eef00242eef00f0012000b7
:10236c000070880070382000e07088005005200054
:10237c00b0468800a00a2000b0468800016da90074
:10238c0011002000d8210a00820d00005005200009
:10239c00b0468800a00a2000b0468800016da80055
:1023ac000080fa00000006000200fa00000f78001e
:1023bc0021028000200f2000008060001e007000b1
:1023cc00200288000080fa00000006000000fa00dd
:1023dc00c3e8a80000000000000000000080fa0024
:1023ec00000006000000fa00ceff070069ff07009e
:1023fc002b0007005afc07007afe0700f3fe0700cb
:10240c00f2ff070000022000e7ff07000080fa003f
:10241c00000006000000fa005eff07000080fa00d2
:10242c00000006000000fa00007c80000080fa002a
:10243c00000006000000fa00e4fd07000080fa002e
:10244c00000006000000fa0062fe07000080fa009f
:10245c0000000600000f78009e00780001808800c4
:10246c00ffff37000000fa002000210080077800f1
:10247c00a0012100000188000080fa000000060085
:020000040000fa
:10248c00021000002000000080000000001000007e
:10249c000200000082000000ffff000000000000ae
:020000040000fa
:0c24ac000000fa000080fa0000000600aa
:020000040000fa
:020000040002f8
:04be0000ffff000040
:020000040000fa
:020000040002f8
:04be2000ffffff0021
:020000040000fa
:020000040002f8
:04be3000f8ffff0018
:020000040000fa
:020000040002f8
:04be38007bffff008d
:020000040000fa
:020000040002f8
:04be40007453ff0038
:020000040000fa
:020000040002f8
:04be5000ddffff0013
:020000040000fa
:020000040002f8
:04be58000000ff00e7
:020000040000fa
:020000040002f8
:04be60000000ff00df
:020000040000fa
:020000040002f8
:04be68000000ff00d7
:020000040000fa
:020000040002f8
:04be70000000ff00cf
:020000040000fa
:020000040002f8
:04be7800ffffff00c9
:020000040000fa
:020000040002f8
:04be8000ffffff00c1
:020000040000fa
:020000040002f8
:04be8800ffffff00b9
:020000040000fa
:020000040002f8
:04be9000e0ffff00d0
:020000040000fa
:020000040002f8
:04be980094ffff0014
:020000040000fa
:020000040002f8
:04bea000ffffff00a1
:020000040000fa
:020000040002f8
:04bea800fcffff009c
:020000040000fa
:020000040002f8
:04beb000ffffff0091
:020000040000fa
:020000040002f8
:04bec000efdfff00b1
:020000040000fa
:020000040002f8
:04bed000ffffff0071
:020000040000fa
:020000040002f8
:04bee000ffffff0061
:020000040000fa
:020000040002f8
:04bef000ffffff0051
:020000040000fa
:020000040002f8
:04bf0000ffffff0040
:020000040000fa
:020000040002f8
:04bf0800bfffff0078
:020000040000fa
:020000040002f8
:04bf1000f453ff00e7
:020000040000fa
:020000040002f8
:04bf2000ffffff0020
:020000040000fa
:020000040002f8
:04bf2800ffffff0018
:020000040000fa
:020000040002f8
:04bf3000ffffff0010
:00000001FF
