:020000040000fa
:080000000002040000000000f2
:020000040000fa
:04000800fa020000f8
:020000040000fa
:04000c000c030000e1
:020000040000fa
:040010001c030000cd
:020000040000fa
:0400140002030000e3
:020000040000fa
:0400180014030000cd
:020000040000fa
:04001c002c030000b1
:020000040000fa
:0400200024030000b5
:020000040000fa
:040024002c030000a9
:020000040000fa
:040028002c030000a5
:020000040000fa
:04002c002c030000a1
:020000040000fa
:040030002c0300009d
:020000040000fa
:040034002c03000099
:020000040000fa
:040038002c03000095
:020000040000fa
:04003c002c03000091
:020000040000fa
:040040002c0300008d
:020000040000fa
:040044002c03000089
:020000040000fa
:040048002c03000085
:020000040000fa
:04004c002c03000081
:020000040000fa
:040050002c0300007d
:020000040000fa
:040054002c03000079
:020000040000fa
:040058002c03000075
:020000040000fa
:04005c002c03000071
:020000040000fa
:040060002c0300006d
:020000040000fa
:040064002c03000069
:020000040000fa
:040068002c03000065
:020000040000fa
:04006c002c03000061
:020000040000fa
:040070002c0300005d
:020000040000fa
:040074002c03000059
:020000040000fa
:040078002c03000055
:020000040000fa
:04007c002c03000051
:020000040000fa
:040080002c0300004d
:020000040000fa
:040084002c03000049
:020000040000fa
:040088002c03000045
:020000040000fa
:04008c002c03000041
:020000040000fa
:040090002c0300003d
:020000040000fa
:040094002c03000039
:020000040000fa
:040098002c03000035
:020000040000fa
:04009c002c03000031
:020000040000fa
:0400a0002c0300002d
:020000040000fa
:0400a4002c03000029
:020000040000fa
:0400a8002c03000025
:020000040000fa
:0400ac002c03000021
:020000040000fa
:0400b0002c0300001d
:020000040000fa
:0400b4002c03000019
:020000040000fa
:0400b8002c03000015
:020000040000fa
:0400bc002c03000011
:020000040000fa
:0400c0002c0300000d
:020000040000fa
:0400c4002c03000009
:020000040000fa
:0400c8002c03000005
:020000040000fa
:0400cc002c03000001
:020000040000fa
:0400d0002c030000fd
:020000040000fa
:0400d4002c030000f9
:020000040000fa
:0400d8002c030000f5
:020000040000fa
:0400dc002c030000f1
:020000040000fa
:0400e0002c030000ed
:020000040000fa
:0400e4002c030000e9
:020000040000fa
:0400e8002c030000e5
:020000040000fa
:0400ec002c030000e1
:020000040000fa
:0400f0002c030000dd
:020000040000fa
:0400f4002c030000d9
:020000040000fa
:0400f8002c030000d5
:020000040000fa
:0400fc002c030000d1
:020000040000fa
:040100002c030000cc
:020000040000fa
:040104002c030000c8
:020000040000fa
:040108002c030000c4
:020000040000fa
:04010c002c030000c0
:020000040000fa
:040110002c030000bc
:020000040000fa
:040114002c030000b8
:020000040000fa
:040118002c030000b4
:020000040000fa
:04011c002c030000b0
:020000040000fa
:040120002c030000ac
:020000040000fa
:040124002c030000a8
:020000040000fa
:040128002c030000a4
:020000040000fa
:04012c002c030000a0
:020000040000fa
:040130002c0300009c
:020000040000fa
:040134002c03000098
:020000040000fa
:040138002c03000094
:020000040000fa
:04013c002c03000090
:020000040000fa
:040140002c0300008c
:020000040000fa
:040144002c03000088
:020000040000fa
:040148002c03000084
:020000040000fa
:04014c002c03000080
:020000040000fa
:040150002c0300007c
:020000040000fa
:040154002c03000078
:020000040000fa
:040158002c03000074
:020000040000fa
:04015c002c03000070
:020000040000fa
:040160002c0300006c
:020000040000fa
:040164002c03000068
:020000040000fa
:040168002c03000064
:020000040000fa
:04016c002c03000060
:020000040000fa
:040170002c0300005c
:020000040000fa
:040174002c03000058
:020000040000fa
:040178002c03000054
:020000040000fa
:04017c002c03000050
:020000040000fa
:040180002c0300004c
:020000040000fa
:040184002c03000048
:020000040000fa
:040188002c03000044
:020000040000fa
:04018c002c03000040
:020000040000fa
:040190002c0300003c
:020000040000fa
:040194002c03000038
:020000040000fa
:040198002c03000034
:020000040000fa
:04019c002c03000030
:020000040000fa
:0401a0002c0300002c
:020000040000fa
:0401a4002c03000028
:020000040000fa
:0401a8002c03000024
:020000040000fa
:0401ac002c03000020
:020000040000fa
:0401b0002c0300001c
:020000040000fa
:0401b4002c03000018
:020000040000fa
:0401b8002c03000014
:020000040000fa
:0401bc002c03000010
:020000040000fa
:0401c0002c0300000c
:020000040000fa
:0401c4002c03000008
:020000040000fa
:0401c8002c03000004
:020000040000fa
:0401cc002c03000000
:020000040000fa
:0401d0002c030000fc
:020000040000fa
:0401d4002c030000f8
:020000040000fa
:0401d8002c030000f4
:020000040000fa
:0401dc002c030000f0
:020000040000fa
:0401e0002c030000ec
:020000040000fa
:0401e4002c030000e8
:020000040000fa
:0401e8002c030000e4
:020000040000fa
:0401ec002c030000e0
:020000040000fa
:0401f0002c030000dc
:020000040000fa
:0401f4002c030000d8
:020000040000fa
:0401f8002c030000d4
:020000040000fa
:0401fc002c030000d0
:020000040000fa
:040200002c030000cb
:020000040000fa
:040204002c030000c7
:020000040000fa
:040208002c030000c3
:020000040000fa
:04020c002c030000bf
:020000040000fa
:040210002c030000bb
:020000040000fa
:040214002c030000b7
:020000040000fa
:040218002c030000b3
:020000040000fa
:04021c002c030000af
:020000040000fa
:040220002c030000ab
:020000040000fa
:040224002c030000a7
:020000040000fa
:040228002c030000a3
:020000040000fa
:04022c002c0300009f
:020000040000fa
:040230002c0300009b
:020000040000fa
:040234002c03000097
:020000040000fa
:040238002c03000093
:020000040000fa
:04023c002c0300008f
:020000040000fa
:040240002c0300008b
:020000040000fa
:040244002c03000087
:020000040000fa
:040248002c03000083
:020000040000fa
:04024c002c0300007f
:020000040000fa
:040250002c0300007b
:020000040000fa
:040254002c03000077
:020000040000fa
:040258002c03000073
:020000040000fa
:04025c002c0300006f
:020000040000fa
:040260002c0300006b
:020000040000fa
:040264002c03000067
:020000040000fa
:040268002c03000063
:020000040000fa
:04026c002c0300005f
:020000040000fa
:040270002c0300005b
:020000040000fa
:040274002c03000057
:020000040000fa
:040278002c03000053
:020000040000fa
:04027c002c0300004f
:020000040000fa
:040280002c0300004b
:020000040000fa
:040284002c03000047
:020000040000fa
:040288002c03000043
:020000040000fa
:04028c002c0300003f
:020000040000fa
:040290002c0300003b
:020000040000fa
:040294002c03000037
:020000040000fa
:040298002c03000033
:020000040000fa
:04029c002c0300002f
:020000040000fa
:0402a0002c0300002b
:020000040000fa
:0402a4002c03000027
:020000040000fa
:0402a8002c03000023
:020000040000fa
:0402ac002c0300001f
:020000040000fa
:0402b0002c0300001b
:020000040000fa
:0402b4002c03000017
:020000040000fa
:0402b8002c03000013
:020000040000fa
:0402bc002c0300000f
:020000040000fa
:0402c0002c0300000b
:020000040000fa
:0402c4002c03000007
:020000040000fa
:0402c8002c03000003
:020000040000fa
:0402cc002c030000ff
:020000040000fa
:0402d0002c030000fb
:020000040000fa
:0402d4002c030000f7
:020000040000fa
:0402d8002c030000f3
:020000040000fa
:0402dc002c030000ef
:020000040000fa
:0402e0002c030000eb
:020000040000fa
:0402e4002c030000e7
:020000040000fa
:0402e8002c030000e3
:020000040000fa
:0402ec002c030000df
:020000040000fa
:0402f0002c030000db
:020000040000fa
:0402f4002c030000d7
:020000040000fa
:0402f8002c030000d3
:020000040000fa
:0402fc002c030000cf
:020000040000fa
:040300002c030000ca
:020000040000fa
:040304002c030000c6
:020000040000fa
:040308002c030000c2
:020000040000fa
:04030c002c030000be
:020000040000fa
:040310002c030000ba
:020000040000fa
:040314002c030000b6
:020000040000fa
:040318002c030000b2
:020000040000fa
:04031c002c030000ae
:020000040000fa
:100400002f0221000eff21000e01880000000000d5
:10041000000020000000e000020032000001200087
:1004200020028800140007008d0007000000e00093
:1004300003003a0020722000010020000200370073
:100440000000200001002000810f70000100320038
:100450000f000700000020000000e0000200320052
:100460000000020000000000f4050200000000008f
:100470000040da000000fe00200020000000e00044
:1004800002003200100020009001880000000600e9
:10049000a1028800800478000000eb001f003700f4
:1004a000e284440054a0b4009905ba00e2844400f8
:1004b00054a0b4009906ba00e284440054a0b400e9
:1004c0000006eb00476fde00fd07b200ae018800ba
:1004d000636ce10003003a000ad801000000eb0061
:1004e0000e003700606ce10008003a00004deb00a0
:1004f0000a05e800020039003420ec000af0a000f0
:100500008b05e900f9ff3e00040037006168e10057
:10051000010032000086eb000b00070019c7ba008b
:100520001905ba000e04e00003003a000a00e000da
:10053000dbff3a0000000600fe07b200ae028800b2
:100540008a047800f5ff37000cd0a300e20f4d00bd
:100550001c00390089027800354dba000a05e80010
:10056000020039003420ec000af0a0008b05e900fd
:100570000f003200254dba000a05e80002003900dc
:100580003420ec000af0a0008b05e90008003200de
:100590000c00e0000600320015cdba000a05e800a4
:1005a000020039003420ec000af0a0008b05e900bd
:1005b0008984e80054a0b4000b00e000e2ff3a0098
:1005c000000006009902ba00055d78008b05e9007d
:1005d000f7ff3200c82ade00055d78008b05e900d0
:1005e000f3ff32000c00e000f1ff320019ddba0029
:1005f000eeff37003600f800c028a9000000eb002d
:10060000050207003600f80007020700c048a900ed
:1006100010002000000207003600f800c068a900a2
:1006200020002000fc0107003600f800c088a90067
:1006300030002000f80107003600f800c608a900c5
:1006400070002000f40107003600f800c408a9007b
:10065000b0002000f00107000040da000000fe00ba
:040660000000050091
:020000040000fa
:100664000000fa00d221ef000080fa00000006002a
:100674000000fa00d321a8000080fa000000060060
:100684000000fa0088a00a00d40100000080fb00ea
:1006940000f0a7000000ea000000ea004f00de00be
:1006a400004078000080fa00000006000000fa0014
:1006b400d321a9000080fa00000006000000fa001f
:1006c40099a00a00d40100000080fb0000f0a700fc
:1006d4000000ea000000ea004f00de00004078005d
:1006e4000080fa00000006000000fa00d301a80010
:1006f4000080fa00000006000000fa00d301a900ff
:100704000080fa00000006000200fa003000200019
:10071400000f7800a10e8000000028000080600017
:100724000000e0000300320040002000000f7800c9
:1007340015003700dca00a00d40100000080fb0093
:10074400e10f500007003200e20f500008003200b1
:100754000000e00009003a000000eb00000f780000
:100764000900370020002000000f78000600370041
:1007740010002000000f7800030037003000200034
:10078400000f7800000000001e0078000080fa00ce
:10079400000006000600fa001007980021079800e0
:1007a4000000eb00000f78000f003700d10f80002d
:1007b40000102000008060000000e0000e003a00fd
:1007c400f10f80001e009000010878001e009000c8
:1007d4000080e800100798002e0090000000e90057
:1007e400200798001e0fe8002e0090000000e00093
:1007f400eeff3a0001003700000000001e00780000
:100804000080fa00000006000600fa0010079800b5
:10081400210798000000eb00000f78000e0037005d
:10082400d00f8000620060000000e0000e003a007b
:100834001e00900010007800e00f88001e00900059
:100844000080e800100798002e0090000000e900e6
:10085400200798001e0fe8002e0090000000e00022
:10086400efff3a0001003700000000001e0078008e
:100874000080fa00000006000400fa001007980047
:100884000040eb00004f7800190007000004e0006e
:1008940012003200d10e80001e0090000108780082
:1008a400e10e80001e00900011009800f10e8000ff
:1008b4001e00900021009800010f80001e0090008f
:1008c40031009800110f80001e0090004100980034
:1008d40010c0b300004f7800020037000040eb0066
:1008e400004f78001e4078000080fa0000000600e7
:1008f4000000fa0000a00a00d80100000080fb00fc
:1009040000f0a7000000ea000000ea004f00de004b
:10091400004078000080fa00000006000400fa009d
:10092400100798000040eb00004f78001900070002
:100934000004e000120032001e0090001000780055
:10094400200f88001e00900010009000300f8800d7
:100954001e00900020009000400f88001e009000b0
:1009640030009000500f88001e009000400090005e
:10097400600f880010c0b300004f780002003700f9
:100984000040eb00004f78001e4078000080fa0021
:10099400000006000000fa00c00e80006200600043
:1009a40000f0a7000000ea000000e9004f00de00ac
:1009b400004078000080fa00000006000000fa0001
:1009c400007c80000080fa00000006000200fa00ab
:1009d400faff0700000f78001e00780024000700cb
:1009e4000004e0000200320000002800710007004b
:1009f4001e0078002a0007000004e0000200320014
:100a0400000024006b0007001e007800320007007d
:100a14000004e0000200320000202000650007000e
:100a24001e0078003a0007000004e00002003200d3
:100a3400000820005f0007001e0078004200070045
:100a44000004e00002003200000420005900070006
:100a54001e0078004a0007000004e0000200320093
:100a640000012000530007000080fa000000060087
:100a74000400fa00100798000040eb00004f7800d3
:100a84001e0090000000e00002003d0010c0b30012
:100a9400004f78001e4078000080fa000000060035
:100aa4000400fa00100798000040eb00004f7800a3
:100ab4009e00900000002400008060000000e00020
:100ac4000200320010c0b300004f78001e407800ce
:100ad4000080fa00000006000400fa0010079800e5
:100ae4000040eb00004f78009e00900000202000a2
:100af400008060000000e0000200320010c0b3007b
:100b0400004f78001e4078000080fa0000000600c4
:100b14000400fa00100798000040eb00004f780032
:100b24009e00900000082000008060000000e000ab
:100b34000200320010c0b300004f78001e4078005d
:100b44000080fa00000006000400fa001007980074
:100b54000040eb00004f78009e009000000420004d
:100b6400008060000000e0000200320010c0b3000a
:100b7400004f78001e4078000080fa000000060054
:100b84000400fa00100798000040eb00004f7800c2
:100b94001e009000700060000000e00002003200bf
:100ba40010c0b300004f78001e4078000080fa00a7
:100bb400000006000200fa00000f78009e80ea00a0
:100bc400007c800000806000007c88000080fa00c7
:100bd400000006000000fa00802fef000080fa00f9
:100be400000006001400fa005d0007000000eb009e
:100bf400000f78000000eb00500798000000000090
:100c0400aefe07000004a2000004e000fcff3a006e
:100c1400b5fe070000000000a8fe07000004e00085
:100c2400fdff3a00b4fe07000e00780012ff070033
:100c34001e007800500798006a00470037ff07003d
:100c44008bfe0700000000008dfe07000004a200d8
:100c54000004e000fcff3a0094fe070000000000de
:100c640087fe07000004e000fdff3a009e007800c4
:100c7400a0aa2a00808f500002003a00228ea80009
:100c840001003700228ea900ffff37000000fa00a0
:100c940010002300307c880060092000407c88001c
:100ca40010042000507c880010102000707c880004
:100cb40060092000807c880010042000907c88005b
:100cc400b82fef00ba2fef00002def00a42fef0094
:100cd400a62fef00aa2fef00ae2fef00b02fef00ea
:100ce400b22fef007200200080072000a10920002d
:100cf40053f82000804978008149780082497800bf
:100d04000001eb00600420007105200043f820007e
:100d14008049780081497800824978000080fa008f
:100d2400000006000200fa00000f78002102800093
:100d3400200f2000008060001e0070002002880048
:100d44000080fa00000006000000fa00c3e8a800d2
:100d540000000000000000000080fa00000006000f
:100d64000000fa00080007003d000700c7ff070065
:100d74003bfe0700f4ff070000022000e9ff070024
:100d84000080fa00000006000000fa00062eef00c2
:100d9400222eef00f001200010708800f0fe2f00da
:100da400f07088000c2eef00282eef000a2eef00c2
:100db400262eef00082eef00242eef00e001200085
:100dc40000708800f0192000e07088000080fa00ac
:100dd400000006000000fa00acff07000080fa00e3
:100de400000006000000fa00007c80000080fa0089
:100df400000006000000fa00f4fe07000080fa007c
:100e0400000006000000fa0072ff07000080fa00ec
:100e140000000600000f78009e0078000181880021
:100e2400ffff37000000fa0000002100800778006f
:100e340080012100000188000080fa000000060003
:020000040000fa
:100e4400201000000200000082000000ffff0000ec
:100e540000100000200000008000000000000000de
:020000040000fa
:0c0e64000000fa000080fa000000060008
:00000001FF
