:020000040000fa
:080000000002040000000000f2
:020000040000fa
:04000800d002000022
:020000040000fa
:04000c00d00200001e
:020000040000fa
:04001000d00200001a
:020000040000fa
:04001400d002000016
:020000040000fa
:04001800d002000012
:020000040000fa
:04001c00d00200000e
:020000040000fa
:04002000d00200000a
:020000040000fa
:04002400d002000006
:020000040000fa
:04002800d002000002
:020000040000fa
:04002c00d0020000fe
:020000040000fa
:04003000d0020000fa
:020000040000fa
:04003400d0020000f6
:020000040000fa
:04003800d0020000f2
:020000040000fa
:04003c00d0020000ee
:020000040000fa
:04004000d0020000ea
:020000040000fa
:04004400d0020000e6
:020000040000fa
:04004800d0020000e2
:020000040000fa
:04004c00d0020000de
:020000040000fa
:04005000d0020000da
:020000040000fa
:04005400d0020000d6
:020000040000fa
:04005800d0020000d2
:020000040000fa
:04005c00d0020000ce
:020000040000fa
:04006000d0020000ca
:020000040000fa
:04006400d0020000c6
:020000040000fa
:04006800d0020000c2
:020000040000fa
:04006c00d0020000be
:020000040000fa
:04007000d0020000ba
:020000040000fa
:04007400d0020000b6
:020000040000fa
:04007800d0020000b2
:020000040000fa
:04007c00d0020000ae
:020000040000fa
:04008000d0020000aa
:020000040000fa
:04008400d0020000a6
:020000040000fa
:04008800d0020000a2
:020000040000fa
:04008c00d00200009e
:020000040000fa
:04009000d00200009a
:020000040000fa
:04009400d002000096
:020000040000fa
:04009800d002000092
:020000040000fa
:04009c00d00200008e
:020000040000fa
:0400a000d00200008a
:020000040000fa
:0400a400d002000086
:020000040000fa
:0400a800d002000082
:020000040000fa
:0400ac00d00200007e
:020000040000fa
:0400b000d00200007a
:020000040000fa
:0400b400d002000076
:020000040000fa
:0400b800d002000072
:020000040000fa
:0400bc00d00200006e
:020000040000fa
:0400c000d00200006a
:020000040000fa
:0400c400d002000066
:020000040000fa
:0400c800d002000062
:020000040000fa
:0400cc00d00200005e
:020000040000fa
:0400d000d00200005a
:020000040000fa
:0400d400d002000056
:020000040000fa
:0400d800d002000052
:020000040000fa
:0400dc00d00200004e
:020000040000fa
:0400e000d00200004a
:020000040000fa
:0400e400d002000046
:020000040000fa
:0400e800d002000042
:020000040000fa
:0400ec00d00200003e
:020000040000fa
:0400f000d00200003a
:020000040000fa
:0400f400d002000036
:020000040000fa
:0400f800d002000032
:020000040000fa
:0400fc00d00200002e
:020000040000fa
:04010000d002000029
:020000040000fa
:04010400d002000025
:020000040000fa
:04010800d002000021
:020000040000fa
:04010c00d00200001d
:020000040000fa
:04011000d002000019
:020000040000fa
:04011400d002000015
:020000040000fa
:04011800d002000011
:020000040000fa
:04011c00d00200000d
:020000040000fa
:04012000d002000009
:020000040000fa
:04012400d002000005
:020000040000fa
:04012800d002000001
:020000040000fa
:04012c00d0020000fd
:020000040000fa
:04013000d0020000f9
:020000040000fa
:04013400d0020000f5
:020000040000fa
:04013800d0020000f1
:020000040000fa
:04013c00d0020000ed
:020000040000fa
:04014000d0020000e9
:020000040000fa
:04014400d0020000e5
:020000040000fa
:04014800d0020000e1
:020000040000fa
:04014c00d0020000dd
:020000040000fa
:04015000d0020000d9
:020000040000fa
:04015400d0020000d5
:020000040000fa
:04015800d0020000d1
:020000040000fa
:04015c00d0020000cd
:020000040000fa
:04016000d0020000c9
:020000040000fa
:04016400d0020000c5
:020000040000fa
:04020800d002000020
:020000040000fa
:04020c00d00200001c
:020000040000fa
:04021000d002000018
:020000040000fa
:04021400d002000014
:020000040000fa
:04021800d002000010
:020000040000fa
:04021c00d00200000c
:020000040000fa
:04022000d002000008
:020000040000fa
:04022400d002000004
:020000040000fa
:04022800d002000000
:020000040000fa
:04022c00d0020000fc
:020000040000fa
:04023000d0020000f8
:020000040000fa
:04023400d0020000f4
:020000040000fa
:04023800d0020000f0
:020000040000fa
:04023c00d0020000ec
:020000040000fa
:04024000d0020000e8
:020000040000fa
:04024400d0020000e4
:020000040000fa
:04024800d0020000e0
:020000040000fa
:04024c00d0020000dc
:020000040000fa
:04025000d0020000d8
:020000040000fa
:04025400d0020000d4
:020000040000fa
:04025800d0020000d0
:020000040000fa
:04025c00d0020000cc
:020000040000fa
:04026000d0020000c8
:020000040000fa
:04026400d0020000c4
:020000040000fa
:04026800d0020000c0
:020000040000fa
:04026c00d0020000bc
:020000040000fa
:04027000d0020000b8
:020000040000fa
:04027400d0020000b4
:020000040000fa
:04027800d0020000b0
:020000040000fa
:04027c00d0020000ac
:020000040000fa
:04028000d0020000a8
:020000040000fa
:04028400d0020000a4
:020000040000fa
:04028800d0020000a0
:020000040000fa
:04028c00d00200009c
:020000040000fa
:04029000d002000098
:020000040000fa
:04029400d002000094
:020000040000fa
:04029800d002000090
:020000040000fa
:04029c00d00200008c
:020000040000fa
:0402a000d002000088
:020000040000fa
:0402a400d002000084
:020000040000fa
:0402a800d002000080
:020000040000fa
:0402ac00d00200007c
:020000040000fa
:0402b000d002000078
:020000040000fa
:0402b400d002000074
:020000040000fa
:0402b800d002000070
:020000040000fa
:0402bc00d00200006c
:020000040000fa
:0402c000d002000068
:020000040000fa
:0402c400d002000064
:020000040000fa
:0402c800d002000060
:020000040000fa
:0402cc00d00200005c
:020000040000fa
:0402d000d002000058
:020000040000fa
:0402d400d002000054
:020000040000fa
:0402d800d002000050
:020000040000fa
:0402dc00d00200004c
:020000040000fa
:0402e000d002000048
:020000040000fa
:0402e400d002000044
:020000040000fa
:0402e800d002000040
:020000040000fa
:0402ec00d00200003c
:020000040000fa
:0402f000d002000038
:020000040000fa
:0402f400d002000034
:020000040000fa
:0402f800d002000030
:020000040000fa
:0402fc00d00200002c
:020000040000fa
:04030000d002000027
:020000040000fa
:04030400d002000023
:020000040000fa
:04030800d00200001f
:020000040000fa
:04030c00d00200001b
:020000040000fa
:04031000d002000017
:020000040000fa
:04031400d002000013
:020000040000fa
:04031800d00200000f
:020000040000fa
:04031c00d00200000b
:020000040000fa
:04032000d002000007
:020000040000fa
:04032400d002000003
:020000040000fa
:04032800d0020000ff
:020000040000fa
:04032c00d0020000fb
:020000040000fa
:04033000d0020000f7
:020000040000fa
:04033400d0020000f3
:020000040000fa
:04033800d0020000ef
:020000040000fa
:04033c00d0020000eb
:020000040000fa
:04034000d0020000e7
:020000040000fa
:04034400d0020000e3
:020000040000fa
:04034800d0020000df
:020000040000fa
:04034c00d0020000db
:020000040000fa
:04035000d0020000d7
:020000040000fa
:04035400d0020000d3
:020000040000fa
:04035800d0020000cf
:020000040000fa
:04035c00d0020000cb
:020000040000fa
:04036000d0020000c7
:020000040000fa
:04036400d0020000c3
:020000040000fa
:100400002f8920000e7f24000e01880000000000cc
:10041000000020000000e000020032000001200087
:100420002002880014000700a70007000000e00079
:1004300003003a00207b200001002000020037006a
:100440000000200001002000810f70000100320038
:1004500014000700000020000000e000020032004d
:100460000000020000000000c208020000000000be
:100470000040da000000fe004440a90040002000d7
:100480000000e0000300320000002000a00188000e
:100490004440a800000006008a1f78008b1f7800e7
:1004a0000000060091018800800478000000eb0045
:1004b0001a003700e284440032a0b4009905ba0063
:1004c000e284440032a0b4009906ba00e2844400f9
:1004d00032a0b4000006eb00476fde00fd07b2005b
:1004e000636ce10003003a00ebff07000000eb0043
:1004f0000a003700606ce10004003a00005deb0088
:100500008b05e900fdff3e00040037006168e10053
:10051000010032000086eb000b00070019c7ba008b
:100520001905ba000e04e00003003a000a00e000da
:10053000e0ff3a0000000600fe07b2009e018800be
:100540008a047800f5ff3700395dba008b05e900b1
:100550000c003200295dba008b05e900080032006a
:100560000c00e00003003a00e284440032a0b40032
:10057000f5ff370019ddba008b05e900faff3a00f4
:100580008904e800e184440032a0b40000000600c1
:10059000300604000000000000000400000000001d
:1005a0000040da000000fe000a00fa0011002000fe
:1005b000b1bf9f00c0bf9f006a8057005d02070067
:1005c0004fb897000080fa00000006000a00fa0009
:1005d00051002000b1bf9f00c0bf9f006a8057003c
:1005e000560207005fb897000080fa00000006007e
:1005f000889fbe0080047800804480000000e000f6
:1006000004003a000e0007000084eb000000e00048
:1006100008003500884480000900e0000500320031
:1006200009004400060007000000e00001003d0052
:100630000084eb00080078004f04be0000000600b4
:10064000800078000100e00003003a000000200074
:1006500080448800000005000080eb0002002000bc
:10066000828f500002003e00814488000000eb00b1
:10067000000006000800fa00100798002107980003
:1006800032079800be009000010f78000800370084
:100690002e009000104078000000fb00ae0090009b
:1006a0008100e80021079800760207001e0fe9008c
:1006b0001e0078000000e000f5ff3a003e009000c8
:1006c0000080fa0000000600000005008182200082
:1006d00070000700800078000080eb000100e0005f
:1006e0000400350081822000a000200008000700df
:1006f0004f80de00000006008000780001017800d5
:100700003104e000fdff3a00000051000000060047
:10071000889fbe008a1f78000004be00c9009000b8
:1007200069009000808f50000500390009007800b2
:10073000b10007008080eb000000e00016003500eb
:10074000084578004900900008587800c0049800d7
:100750001900780000b8a30004003a0000a8a30024
:1007600007003200ea4f540005003a000900780003
:100770000d0007008080eb000000e00006003a005a
:1007800000c0200019006000020032004900900003
:10079000e00498008a80fb00010078004f05780093
:1007a0004f04be0000000600889fbe008a1f78002c
:1007b000000478000800e0000d003a00688720007f
:1007c000700544008004eb00580078000000e00051
:1007d00004003200f4ff07000000e00001003d00cb
:1007e0008084eb008a0f5400f7ff3a0025003700a1
:1007f00000002200180060008004eb00210032009d
:10080000a80490000f003700090151003840900003
:100810000000fb008900780096ff07000000e00060
:1008200007003c00280090004004980060049800f5
:10083000500c98001890a0008084eb001100370045
:100840008084440048019000828f5400eeff3900fc
:1008500028009000400498009800780002c0200012
:100860000281600001003a003800900001e8a30016
:10087000020032006004980001003700500c98001c
:100880008004eb00090078004f0578004f04be009b
:1008900000000600889fbe008a9fbe00800478008a
:1008a000010478002c003700c80090006800900018
:1008b000808f500004003900080078004e000700c7
:1008c0000000e00037003500004020001800600004
:1008d00009003200a1002000090078003c00070058
:1008e000800578000b00e0000300320061851400f1
:1008f0000a85450004003700090078007eff0700e4
:10090000000578008005eb0048009000e8009000aa
:10091000808050008a8f500002003100010578006d
:100920008005eb000a0178008900780021000700ab
:10093000480090000a004000400498000b00e000ce
:10094000040032000800780097ff07000000e00074
:1009500014003a008a8444001904e000d2ff3a00ef
:1009600000802000180060000600320008007800b7
:100970008dff0700800078000080eb000100e000a0
:1009800009003a0001c02000988060000000eb00e0
:100990000500320048009000600498000000eb0061
:1009a000010037000080eb004f05be004f04be0081
:1009b000000006008001780002003700b15978007d
:1009c0000201e9000200e000fcff3a00000006001e
:1009d0000001eb0000027800b041780081cf5100a7
:1009e00001003a00040178000304e000f9ff3a0036
:1009f0000200780000000600889fbe008a1f780071
:100a000000047800c8009000680190000000eb002e
:100a1000828f50003c003900180078002200290025
:100a200002016000e20f51000700320001202400a3
:100a30000000e00001003d0001202000008c70005b
:100a40000080eb003000370002002600020060004a
:100a5000820f500009003a0038009000808f50004b
:100a600006003900080078004fff0700800078007a
:100a70000080eb000100e00023003a001805780038
:100a800000c020000000650018003a00a804900093
:100a90006002200008004000808f540013003a00dc
:100aa00000202000ef000700200498000000e00074
:100ab00005003a0029049800490498008904e800d8
:100ac00039049800080037000a60a0000a0c78007a
:100ad00040049800012020008080400031049800ec
:100ae000400c9800500c98000c0007002800900063
:100af0005004980038009000600498000000260020
:100b0000180c70000000eb004f0578004f04be0089
:100b1000000006000063200061003700881f780095
:100b2000c88820001804e00003003a00f9ff07001d
:100b300020c0b300004c78004f047800000006008d
:100b4000889fbe00000478000800780016ff0700a8
:100b500080047800000420001800600002003200c9
:100b6000280090005a0007000000eb0020049800c5
:100b7000384090000004e000050035000000fb0054
:100b800089fe07000000e000010032008084eb00d5
:100b9000181090000000e000080032008bfe0700f3
:100ba0000000e000010032008084eb00181090008b
:100bb000470007000000eb00101498000008200018
:100bc00018006000150032000001eb006000b80062
:100bd000838720000202d00063027a00880f52004f
:100be00005003a000000400081804800008041007c
:100bf0000008eb000600370061004000e08048007c
:100c00000201e800e80f5000e08f5800f0ff3a00c2
:100c1000080078002e0007000e003700000c780056
:100c200000c0eb0030449800600220000800400043
:100c3000200498004004980050049800400c98004c
:100c400060049800500c98007004980076004400ee
:100c5000000c9800090078004f04be000000060058
:100c6000881f78000004eb006140b800e2ff2f000d
:100c7000f3ff2f00b30007006288200062007800b5
:100c80000000e00001003200adff07000804e800aa
:100c9000e80f5400f4ff3a004f047800000006000b
:100ca000010020000100e000080032000100800087
:100cb0000100e000050032008100e9000100880029
:100cc0008100d0000200800000b178000000060022
:100cd0000000e0002f003200c0017800e38f5100d7
:100ce0002c0036000308a3002a003a00514480007b
:100cf0000100e00002003200810f500004003100ca
:100d000011009800504488001600370082007800d7
:100d1000110190000200e00002003200800f51003b
:100d2000faff39001102780084824000850f5000dc
:100d300018003900808f520003003a0083084200f7
:100d400001007800070037000200e00003003200d5
:100d500083014000830f51000e00390012009800fb
:100d600090009800900090000100e000090032001f
:100d700010014000828f500006003a008288200057
:100d80000009eb001001780011084100910090006b
:100d90001100980000000600889fbe000004780043
:100da000414480000100e0000200320001007800b0
:100db0000d00370051448000a08820000400370057
:100dc000910f5400250036000180e800910090004a
:100dd0000100e000faff3a0010003700920f5400c3
:100de0001e0036000280e800100178000200e000da
:100df000faff3a001101780051448000a0882000d9
:100e000004003700910f5400140036000180e80000
:100e100091009000828f5000faff3a0079448000e0
:100e2000888f5400010031008804780009007800a0
:100e3000360007000000e00004003a00888f5400ec
:100e4000050032008904d100f5ff37000918780049
:100e50009fff0700d2ff37000000eb004f04be00e9
:100e600000000600881f7800630440000800a1000d
:100e70008000eb00800f540021003600e30f540087
:100e800001003e004800200008007800c2ff070073
:100e90008000eb000000e0001900320090007800b4
:100ea0009101780064815100880f510003003100e6
:100eb0001101900002087800070037000881400007
:100ec0000208780091019000130198001001780049
:100ed0001109140088087800100178000000eb0068
:100ee0000200e00004003200920190000300e000e4
:100ef000010032000280e800404488008180e80060
:100f0000010078004f04780000000600800078009f
:100f10000000eb000100e000050034000100780053
:100f2000b3fd0700e10f400001003a000000eb00b4
:100f30000000060000c0da000000060000c0da0071
:100f400000000600020ab900001bb9000200b80048
:0c0f500081004200810043000000060008
:020000040000fa
:080f5c00426f00006f0000006d
:020000040000fa
:100f640000080000880000000200000001000000ea
:100f74000026080027082600082608002608260060
:100f84000816080000000000000000000000000037
:100f9400000000000000000000000000000000004d
:100fa4000002080001014e00084f08004e084e00e0
:100fb400084e08004e083e00080000000000000033
:100fc400000000000000000000000000000000001d
:100fd400000000000000020008020200760877000a
:100fe400087608007608760008760800660800008f
:100ff40000000000000000000000000000000000ed
:1010040000000000000000000000000000082800ac
:10101400085008000000000000000000000000006c
:10102400000000008c080000020000000000000026
:101034008e0800000200000002000000040000000e
:101044008808000004000000000000009008000070
:0c1054000200000000000000000000008e
:020000040000fa
:101060000000fa002022ef00f00e2000401188005e
:101070002222ef0021e2a8002342a8000080fa000b
:10108000000006000200fa00000f780000000000d7
:101090001111800000202000008060000000e000ae
:1010a000fbff3a009e007800211188000080fa00c2
:1010b000000006000400fa00881f7800100798005e
:1010c0000000eb00000f7800070037001e007800da
:1010d000000040009e00900000804000100078005a
:1010e000e8ff07001e0fe8001e0478001e009000b5
:1010f00081fd0700800f5400f4ff3900a00020009c
:10110000e0ff07004f0478000080fa0000000600ae
:101110000000fa00213a800000fe2f0000806000ed
:10112000203a8800313a800000e02f008080600083
:101130008002200001007000303a8800213a8000cf
:10114000f0f32f0000806000203a880000000000cb
:10115000113a800000022000008060000000e000e2
:10116000fbff320040a7a9000080fa000000060043
:101170000000fa00e6ff0700b9ff07000080fa0050
:10118000000006000000fa00f9ff0700c8e2a9000d
:1011900031368000f00f2e0080806000003020008b
:1011a0000100700030368800e07a280047fd070013
:1011b00000a025002126200001000700faff3700cb
:020000040000fa
:1011c000f03fb1000180b10006003500ee030900d8
:1011d00000000000403fb1000180b100fbff3d0076
:1011e0001000b000203fb000020035000080090070
:0811f0000000000000000600f1
:020000040000fa
:0200000401f009
:04000000ffff0000fe
:020000040000fa
:0200000401f009
:04000400ffff0000fa
:020000040000fa
:0200000401f009
:04000800ffff0000f6
:020000040000fa
:0200000401f009
:04000c00810000006f
:020000040000fa
:0200000401f009
:04001000a300000049
:020000040000fa
:0200000401f009
:040014005f00000089
:020000040000fa
:0200000401f009
:04001800f7000000ed
:020000040000fa
:0200000401f009
:04001c00ddff000004
:00000001FF
